{
  "_format": "hh-sol-artifact-1",
  "contractName": "mStay",
  "sourceName": "contracts/mStay.sol",
  "abi": [
    {
      "anonymous": false,
      "inputs": [
        {
          "indexed": false,
          "internalType": "uint256",
          "name": "id",
          "type": "uint256"
        },
        {
          "indexed": false,
          "internalType": "address",
          "name": "owner",
          "type": "address"
        },
        {
          "indexed": false,
          "internalType": "string",
          "name": "title",
          "type": "string"
        }
      ],
      "name": "ListingCreated",
      "type": "event"
    },
    {
      "anonymous": false,
      "inputs": [
        {
          "indexed": false,
          "internalType": "uint256",
          "name": "id",
          "type": "uint256"
        },
        {
          "indexed": false,
          "internalType": "address",
          "name": "guest",
          "type": "address"
        },
        {
          "indexed": false,
          "internalType": "uint256",
          "name": "listingId",
          "type": "uint256"
        }
      ],
      "name": "ReservationMade",
      "type": "event"
    },
    {
      "inputs": [
        {
          "internalType": "uint256",
          "name": "_reservationId",
          "type": "uint256"
        }
      ],
      "name": "cancelReservation",
      "outputs": [],
      "stateMutability": "nonpayable",
      "type": "function"
    },
    {
      "inputs": [
        {
          "internalType": "string",
          "name": "_title",
          "type": "string"
        },
        {
          "internalType": "string",
          "name": "_location",
          "type": "string"
        },
        {
          "internalType": "string",
          "name": "_description",
          "type": "string"
        },
        {
          "internalType": "uint256",
          "name": "_pricePerNight",
          "type": "uint256"
        },
        {
          "internalType": "string[]",
          "name": "_images",
          "type": "string[]"
        }
      ],
      "name": "createListing",
      "outputs": [],
      "stateMutability": "nonpayable",
      "type": "function"
    },
    {
      "inputs": [
        {
          "internalType": "uint256",
          "name": "_listingId",
          "type": "uint256"
        }
      ],
      "name": "deleteListing",
      "outputs": [],
      "stateMutability": "nonpayable",
      "type": "function"
    },
    {
      "inputs": [],
      "name": "getAllListings",
      "outputs": [
        {
          "components": [
            {
              "internalType": "uint256",
              "name": "id",
              "type": "uint256"
            },
            {
              "internalType": "address payable",
              "name": "owner",
              "type": "address"
            },
            {
              "internalType": "string",
              "name": "title",
              "type": "string"
            },
            {
              "internalType": "string",
              "name": "location",
              "type": "string"
            },
            {
              "internalType": "string",
              "name": "description",
              "type": "string"
            },
            {
              "internalType": "uint256",
              "name": "pricePerNight",
              "type": "uint256"
            },
            {
              "internalType": "string[]",
              "name": "images",
              "type": "string[]"
            }
          ],
          "internalType": "struct mStay.Listing[]",
          "name": "",
          "type": "tuple[]"
        }
      ],
      "stateMutability": "view",
      "type": "function"
    },
    {
      "inputs": [],
      "name": "getAllReservations",
      "outputs": [
        {
          "components": [
            {
              "internalType": "uint256",
              "name": "id",
              "type": "uint256"
            },
            {
              "internalType": "address",
              "name": "guest",
              "type": "address"
            },
            {
              "internalType": "uint256",
              "name": "listingId",
              "type": "uint256"
            },
            {
              "internalType": "uint256",
              "name": "checkInDate",
              "type": "uint256"
            },
            {
              "internalType": "uint256",
              "name": "checkOutDate",
              "type": "uint256"
            }
          ],
          "internalType": "struct mStay.Reservation[]",
          "name": "",
          "type": "tuple[]"
        }
      ],
      "stateMutability": "view",
      "type": "function"
    },
    {
      "inputs": [
        {
          "internalType": "uint256",
          "name": "_listingId",
          "type": "uint256"
        }
      ],
      "name": "getReviewsForListing",
      "outputs": [
        {
          "components": [
            {
              "internalType": "address",
              "name": "reviewer",
              "type": "address"
            },
            {
              "internalType": "uint256",
              "name": "listingId",
              "type": "uint256"
            },
            {
              "internalType": "uint8",
              "name": "rating",
              "type": "uint8"
            },
            {
              "internalType": "string",
              "name": "comment",
              "type": "string"
            }
          ],
          "internalType": "struct mStay.Review[]",
          "name": "",
          "type": "tuple[]"
        }
      ],
      "stateMutability": "view",
      "type": "function"
    },
    {
      "inputs": [
        {
          "internalType": "uint256",
          "name": "_listingId",
          "type": "uint256"
        },
        {
          "internalType": "uint8",
          "name": "_rating",
          "type": "uint8"
        },
        {
          "internalType": "string",
          "name": "_comment",
          "type": "string"
        }
      ],
      "name": "leaveReview",
      "outputs": [],
      "stateMutability": "nonpayable",
      "type": "function"
    },
    {
      "inputs": [],
      "name": "listingCount",
      "outputs": [
        {
          "internalType": "uint256",
          "name": "",
          "type": "uint256"
        }
      ],
      "stateMutability": "view",
      "type": "function"
    },
    {
      "inputs": [
        {
          "internalType": "uint256",
          "name": "",
          "type": "uint256"
        },
        {
          "internalType": "uint256",
          "name": "",
          "type": "uint256"
        }
      ],
      "name": "listingReviews",
      "outputs": [
        {
          "internalType": "address",
          "name": "reviewer",
          "type": "address"
        },
        {
          "internalType": "uint256",
          "name": "listingId",
          "type": "uint256"
        },
        {
          "internalType": "uint8",
          "name": "rating",
          "type": "uint8"
        },
        {
          "internalType": "string",
          "name": "comment",
          "type": "string"
        }
      ],
      "stateMutability": "view",
      "type": "function"
    },
    {
      "inputs": [
        {
          "internalType": "uint256",
          "name": "",
          "type": "uint256"
        }
      ],
      "name": "listings",
      "outputs": [
        {
          "internalType": "uint256",
          "name": "id",
          "type": "uint256"
        },
        {
          "internalType": "address payable",
          "name": "owner",
          "type": "address"
        },
        {
          "internalType": "string",
          "name": "title",
          "type": "string"
        },
        {
          "internalType": "string",
          "name": "location",
          "type": "string"
        },
        {
          "internalType": "string",
          "name": "description",
          "type": "string"
        },
        {
          "internalType": "uint256",
          "name": "pricePerNight",
          "type": "uint256"
        }
      ],
      "stateMutability": "view",
      "type": "function"
    },
    {
      "inputs": [
        {
          "internalType": "uint256",
          "name": "_listingId",
          "type": "uint256"
        },
        {
          "internalType": "uint256",
          "name": "_checkInDate",
          "type": "uint256"
        },
        {
          "internalType": "uint256",
          "name": "_checkOutDate",
          "type": "uint256"
        }
      ],
      "name": "makeReservation",
      "outputs": [],
      "stateMutability": "payable",
      "type": "function"
    },
    {
      "inputs": [],
      "name": "reservationCount",
      "outputs": [
        {
          "internalType": "uint256",
          "name": "",
          "type": "uint256"
        }
      ],
      "stateMutability": "view",
      "type": "function"
    },
    {
      "inputs": [
        {
          "internalType": "uint256",
          "name": "",
          "type": "uint256"
        }
      ],
      "name": "reservations",
      "outputs": [
        {
          "internalType": "uint256",
          "name": "id",
          "type": "uint256"
        },
        {
          "internalType": "address",
          "name": "guest",
          "type": "address"
        },
        {
          "internalType": "uint256",
          "name": "listingId",
          "type": "uint256"
        },
        {
          "internalType": "uint256",
          "name": "checkInDate",
          "type": "uint256"
        },
        {
          "internalType": "uint256",
          "name": "checkOutDate",
          "type": "uint256"
        }
      ],
      "stateMutability": "view",
      "type": "function"
    }
  ],
  "bytecode": "0x608060405234801561001057600080fd5b50612f60806100206000396000f3fe6080604052600436106100c25760003560e01c8063c978f65e1161007f578063e6282c6e11610059578063e6282c6e14610277578063e84f756e146102a0578063f3fb3c88146102cb578063fbc6283314610308576100c2565b8063c978f65e146101d9578063de06e7a614610219578063de74e57b14610235576100c2565b8063067cf832146100c75780630dc9759d14610108578063507014c714610131578063a9b07c261461015a578063ae5e6cf414610185578063ae73ccec146101ae575b600080fd5b3480156100d357600080fd5b506100ee60048036038101906100e99190611b92565b610333565b6040516100ff959493929190611c0f565b60405180910390f35b34801561011457600080fd5b5061012f600480360381019061012a9190611de1565b610389565b005b34801561013d57600080fd5b5061015860048036038101906101539190611f36565b6105df565b005b34801561016657600080fd5b5061016f610756565b60405161017c9190612021565b60405180910390f35b34801561019157600080fd5b506101ac60048036038101906101a79190611b92565b61075c565b005b3480156101ba57600080fd5b506101c3610916565b6040516101d09190612320565b60405180910390f35b3480156101e557600080fd5b5061020060048036038101906101fb9190612342565b610cdd565b60405161021094939291906123db565b60405180910390f35b610233600480360381019061022e9190612427565b610ddf565b005b34801561024157600080fd5b5061025c60048036038101906102579190611b92565b611320565b60405161026e96959493929190612489565b60405180910390f35b34801561028357600080fd5b5061029e60048036038101906102999190611b92565b611514565b005b3480156102ac57600080fd5b506102b56116e1565b6040516102c29190612021565b60405180910390f35b3480156102d757600080fd5b506102f260048036038101906102ed9190611b92565b6116e7565b6040516102ff9190612642565b60405180910390f35b34801561031457600080fd5b5061031d611868565b60405161032a919061277b565b60405180910390f35b60036020528060005260406000206000915090508060000154908060010160009054906101000a900473ffffffffffffffffffffffffffffffffffffffff16908060020154908060030154908060040154905085565b60018260ff16101580156103a1575060058260ff1611155b6103e0576040517f08c379a00000000000000000000000000000000000000000000000000000000081526004016103d7906127e9565b60405180910390fd5b600080600190505b60015481116104985784600360008381526020019081526020016000206002015414801561047757503373ffffffffffffffffffffffffffffffffffffffff166003600083815260200190815260200160002060010160009054906101000a900473ffffffffffffffffffffffffffffffffffffffff1673ffffffffffffffffffffffffffffffffffffffff16145b156104855760019150610498565b808061049090612838565b9150506103e8565b50806104d9576040517f08c379a00000000000000000000000000000000000000000000000000000000081526004016104d0906128cc565b60405180910390fd5b6004600085815260200190815260200160002060405180608001604052803373ffffffffffffffffffffffffffffffffffffffff1681526020018681526020018560ff16815260200184815250908060018154018082558091505060019003906000526020600020906004020160009091909190915060008201518160000160006101000a81548173ffffffffffffffffffffffffffffffffffffffff021916908373ffffffffffffffffffffffffffffffffffffffff1602179055506020820151816001015560408201518160020160006101000a81548160ff021916908360ff16021790555060608201518160030190816105d69190612af8565b50505050505050565b6000808154809291906105f190612838565b91905055506040518060e0016040528060005481526020013373ffffffffffffffffffffffffffffffffffffffff1681526020018681526020018581526020018481526020018381526020018281525060026000805481526020019081526020016000206000820151816000015560208201518160010160006101000a81548173ffffffffffffffffffffffffffffffffffffffff021916908373ffffffffffffffffffffffffffffffffffffffff16021790555060408201518160020190816106bb9190612af8565b5060608201518160030190816106d19190612af8565b5060808201518160040190816106e79190612af8565b5060a0820151816005015560c082015181600601908051906020019061070e9291906119b5565b509050507ffccfab3757a37767d03b5ffd499faaa9faf5a6d33900ee43e310e77bce34940b600054338760405161074793929190612bca565b60405180910390a15050505050565b60005481565b6000600360008381526020019081526020016000206040518060a0016040529081600082015481526020016001820160009054906101000a900473ffffffffffffffffffffffffffffffffffffffff1673ffffffffffffffffffffffffffffffffffffffff1673ffffffffffffffffffffffffffffffffffffffff168152602001600282015481526020016003820154815260200160048201548152505090506000816000015103610843576040517f08c379a000000000000000000000000000000000000000000000000000000000815260040161083a90612c54565b60405180910390fd5b3373ffffffffffffffffffffffffffffffffffffffff16816020015173ffffffffffffffffffffffffffffffffffffffff16146108b5576040517f08c379a00000000000000000000000000000000000000000000000000000000081526004016108ac90612cc0565b60405180910390fd5b600360008381526020019081526020016000206000808201600090556001820160006101000a81549073ffffffffffffffffffffffffffffffffffffffff021916905560028201600090556003820160009055600482016000905550505050565b60606000805467ffffffffffffffff81111561093557610934611cb6565b5b60405190808252806020026020018201604052801561096e57816020015b61095b611a0e565b8152602001906001900390816109535790505b5090506000600190505b6000548111610cd557600260008281526020019081526020016000206040518060e0016040529081600082015481526020016001820160009054906101000a900473ffffffffffffffffffffffffffffffffffffffff1673ffffffffffffffffffffffffffffffffffffffff1673ffffffffffffffffffffffffffffffffffffffff168152602001600282018054610a0f9061291b565b80601f0160208091040260200160405190810160405280929190818152602001828054610a3b9061291b565b8015610a885780601f10610a5d57610100808354040283529160200191610a88565b820191906000526020600020905b815481529060010190602001808311610a6b57829003601f168201915b50505050508152602001600382018054610aa19061291b565b80601f0160208091040260200160405190810160405280929190818152602001828054610acd9061291b565b8015610b1a5780601f10610aef57610100808354040283529160200191610b1a565b820191906000526020600020905b815481529060010190602001808311610afd57829003601f168201915b50505050508152602001600482018054610b339061291b565b80601f0160208091040260200160405190810160405280929190818152602001828054610b5f9061291b565b8015610bac5780601f10610b8157610100808354040283529160200191610bac565b820191906000526020600020905b815481529060010190602001808311610b8f57829003601f168201915b505050505081526020016005820154815260200160068201805480602002602001604051908101604052809291908181526020016000905b82821015610c90578382906000526020600020018054610c039061291b565b80601f0160208091040260200160405190810160405280929190818152602001828054610c2f9061291b565b8015610c7c5780601f10610c5157610100808354040283529160200191610c7c565b820191906000526020600020905b815481529060010190602001808311610c5f57829003601f168201915b505050505081526020019060010190610be4565b505050508152505082600183610ca69190612ce0565b81518110610cb757610cb6612d14565b5b60200260200101819052508080610ccd90612838565b915050610978565b508091505090565b60046020528160005260406000208181548110610cf957600080fd5b9060005260206000209060040201600091509150508060000160009054906101000a900473ffffffffffffffffffffffffffffffffffffffff16908060010154908060020160009054906101000a900460ff1690806003018054610d5c9061291b565b80601f0160208091040260200160405190810160405280929190818152602001828054610d889061291b565b8015610dd55780601f10610daa57610100808354040283529160200191610dd5565b820191906000526020600020905b815481529060010190602001808311610db857829003601f168201915b5050505050905084565b6000600260008581526020019081526020016000206040518060e0016040529081600082015481526020016001820160009054906101000a900473ffffffffffffffffffffffffffffffffffffffff1673ffffffffffffffffffffffffffffffffffffffff1673ffffffffffffffffffffffffffffffffffffffff168152602001600282018054610e6f9061291b565b80601f0160208091040260200160405190810160405280929190818152602001828054610e9b9061291b565b8015610ee85780601f10610ebd57610100808354040283529160200191610ee8565b820191906000526020600020905b815481529060010190602001808311610ecb57829003601f168201915b50505050508152602001600382018054610f019061291b565b80601f0160208091040260200160405190810160405280929190818152602001828054610f2d9061291b565b8015610f7a5780601f10610f4f57610100808354040283529160200191610f7a565b820191906000526020600020905b815481529060010190602001808311610f5d57829003601f168201915b50505050508152602001600482018054610f939061291b565b80601f0160208091040260200160405190810160405280929190818152602001828054610fbf9061291b565b801561100c5780601f10610fe15761010080835404028352916020019161100c565b820191906000526020600020905b815481529060010190602001808311610fef57829003601f168201915b505050505081526020016005820154815260200160068201805480602002602001604051908101604052809291908181526020016000905b828210156110f05783829060005260206000200180546110639061291b565b80601f016020809104026020016040519081016040528092919081815260200182805461108f9061291b565b80156110dc5780601f106110b1576101008083540402835291602001916110dc565b820191906000526020600020905b8154815290600101906020018083116110bf57829003601f168201915b505050505081526020019060010190611044565b50505050815250509050600073ffffffffffffffffffffffffffffffffffffffff16816020015173ffffffffffffffffffffffffffffffffffffffff160361116d576040517f08c379a000000000000000000000000000000000000000000000000000000000815260040161116490612d8f565b60405180910390fd5b8060a001513410156111b4576040517f08c379a00000000000000000000000000000000000000000000000000000000081526004016111ab90612dfb565b60405180910390fd5b600160008154809291906111c790612838565b91905055506040518060a0016040528060015481526020013373ffffffffffffffffffffffffffffffffffffffff168152602001858152602001848152602001838152506003600060015481526020019081526020016000206000820151816000015560208201518160010160006101000a81548173ffffffffffffffffffffffffffffffffffffffff021916908373ffffffffffffffffffffffffffffffffffffffff160217905550604082015181600201556060820151816003015560808201518160040155905050806020015173ffffffffffffffffffffffffffffffffffffffff166108fc349081150290604051600060405180830381858888f193505050501580156112dc573d6000803e3d6000fd5b507f1454e9ce257a8f02d1dcfcab9cf23320507f1597a918e65c2ab9e457f9acb2cc600154338660405161131293929190612e1b565b60405180910390a150505050565b60026020528060005260406000206000915090508060000154908060010160009054906101000a900473ffffffffffffffffffffffffffffffffffffffff169080600201805461136f9061291b565b80601f016020809104026020016040519081016040528092919081815260200182805461139b9061291b565b80156113e85780601f106113bd576101008083540402835291602001916113e8565b820191906000526020600020905b8154815290600101906020018083116113cb57829003601f168201915b5050505050908060030180546113fd9061291b565b80601f01602080910402602001604051908101604052809291908181526020018280546114299061291b565b80156114765780601f1061144b57610100808354040283529160200191611476565b820191906000526020600020905b81548152906001019060200180831161145957829003601f168201915b50505050509080600401805461148b9061291b565b80601f01602080910402602001604051908101604052809291908181526020018280546114b79061291b565b80156115045780601f106114d957610100808354040283529160200191611504565b820191906000526020600020905b8154815290600101906020018083116114e757829003601f168201915b5050505050908060050154905086565b6000600260008381526020019081526020016000209050600073ffffffffffffffffffffffffffffffffffffffff168160010160009054906101000a900473ffffffffffffffffffffffffffffffffffffffff1673ffffffffffffffffffffffffffffffffffffffff16036115be576040517f08c379a00000000000000000000000000000000000000000000000000000000081526004016115b590612e9e565b60405180910390fd5b3373ffffffffffffffffffffffffffffffffffffffff168160010160009054906101000a900473ffffffffffffffffffffffffffffffffffffffff1673ffffffffffffffffffffffffffffffffffffffff1614611650576040517f08c379a000000000000000000000000000000000000000000000000000000000815260040161164790612f0a565b60405180910390fd5b600260008381526020019081526020016000206000808201600090556001820160006101000a81549073ffffffffffffffffffffffffffffffffffffffff02191690556002820160006116a39190611a61565b6003820160006116b39190611a61565b6004820160006116c39190611a61565b60058201600090556006820160006116db9190611aa1565b50505050565b60015481565b606060046000838152602001908152602001600020805480602002602001604051908101604052809291908181526020016000905b8282101561185d57838290600052602060002090600402016040518060800160405290816000820160009054906101000a900473ffffffffffffffffffffffffffffffffffffffff1673ffffffffffffffffffffffffffffffffffffffff1673ffffffffffffffffffffffffffffffffffffffff168152602001600182015481526020016002820160009054906101000a900460ff1660ff1660ff1681526020016003820180546117cc9061291b565b80601f01602080910402602001604051908101604052809291908181526020018280546117f89061291b565b80156118455780601f1061181a57610100808354040283529160200191611845565b820191906000526020600020905b81548152906001019060200180831161182857829003601f168201915b5050505050815250508152602001906001019061171c565b505050509050919050565b6060600060015467ffffffffffffffff81111561188857611887611cb6565b5b6040519080825280602002602001820160405280156118c157816020015b6118ae611ac2565b8152602001906001900390816118a65790505b5090506000600190505b60015481116119ad57600360008281526020019081526020016000206040518060a0016040529081600082015481526020016001820160009054906101000a900473ffffffffffffffffffffffffffffffffffffffff1673ffffffffffffffffffffffffffffffffffffffff1673ffffffffffffffffffffffffffffffffffffffff16815260200160028201548152602001600382015481526020016004820154815250508260018361197e9190612ce0565b8151811061198f5761198e612d14565b5b602002602001018190525080806119a590612838565b9150506118cb565b508091505090565b8280548282559060005260206000209081019282156119fd579160200282015b828111156119fc5782518290816119ec9190612af8565b50916020019190600101906119d5565b5b509050611a0a9190611b07565b5090565b6040518060e0016040528060008152602001600073ffffffffffffffffffffffffffffffffffffffff16815260200160608152602001606081526020016060815260200160008152602001606081525090565b508054611a6d9061291b565b6000825580601f10611a7f5750611a9e565b601f016020900490600052602060002090810190611a9d9190611b2b565b5b50565b5080546000825590600052602060002090810190611abf9190611b07565b50565b6040518060a0016040528060008152602001600073ffffffffffffffffffffffffffffffffffffffff1681526020016000815260200160008152602001600081525090565b5b80821115611b275760008181611b1e9190611a61565b50600101611b08565b5090565b5b80821115611b44576000816000905550600101611b2c565b5090565b6000604051905090565b600080fd5b600080fd5b6000819050919050565b611b6f81611b5c565b8114611b7a57600080fd5b50565b600081359050611b8c81611b66565b92915050565b600060208284031215611ba857611ba7611b52565b5b6000611bb684828501611b7d565b91505092915050565b611bc881611b5c565b82525050565b600073ffffffffffffffffffffffffffffffffffffffff82169050919050565b6000611bf982611bce565b9050919050565b611c0981611bee565b82525050565b600060a082019050611c246000830188611bbf565b611c316020830187611c00565b611c3e6040830186611bbf565b611c4b6060830185611bbf565b611c586080830184611bbf565b9695505050505050565b600060ff82169050919050565b611c7881611c62565b8114611c8357600080fd5b50565b600081359050611c9581611c6f565b92915050565b600080fd5b600080fd5b6000601f19601f8301169050919050565b7f4e487b7100000000000000000000000000000000000000000000000000000000600052604160045260246000fd5b611cee82611ca5565b810181811067ffffffffffffffff82111715611d0d57611d0c611cb6565b5b80604052505050565b6000611d20611b48565b9050611d2c8282611ce5565b919050565b600067ffffffffffffffff821115611d4c57611d4b611cb6565b5b611d5582611ca5565b9050602081019050919050565b82818337600083830152505050565b6000611d84611d7f84611d31565b611d16565b905082815260208101848484011115611da057611d9f611ca0565b5b611dab848285611d62565b509392505050565b600082601f830112611dc857611dc7611c9b565b5b8135611dd8848260208601611d71565b91505092915050565b600080600060608486031215611dfa57611df9611b52565b5b6000611e0886828701611b7d565b9350506020611e1986828701611c86565b925050604084013567ffffffffffffffff811115611e3a57611e39611b57565b5b611e4686828701611db3565b9150509250925092565b600067ffffffffffffffff821115611e6b57611e6a611cb6565b5b602082029050602081019050919050565b600080fd5b6000611e94611e8f84611e50565b611d16565b90508083825260208201905060208402830185811115611eb757611eb6611e7c565b5b835b81811015611efe57803567ffffffffffffffff811115611edc57611edb611c9b565b5b808601611ee98982611db3565b85526020850194505050602081019050611eb9565b5050509392505050565b600082601f830112611f1d57611f1c611c9b565b5b8135611f2d848260208601611e81565b91505092915050565b600080600080600060a08688031215611f5257611f51611b52565b5b600086013567ffffffffffffffff811115611f7057611f6f611b57565b5b611f7c88828901611db3565b955050602086013567ffffffffffffffff811115611f9d57611f9c611b57565b5b611fa988828901611db3565b945050604086013567ffffffffffffffff811115611fca57611fc9611b57565b5b611fd688828901611db3565b9350506060611fe788828901611b7d565b925050608086013567ffffffffffffffff81111561200857612007611b57565b5b61201488828901611f08565b9150509295509295909350565b60006020820190506120366000830184611bbf565b92915050565b600081519050919050565b600082825260208201905092915050565b6000819050602082019050919050565b61207181611b5c565b82525050565b600061208282611bce565b9050919050565b61209281612077565b82525050565b600081519050919050565b600082825260208201905092915050565b60005b838110156120d25780820151818401526020810190506120b7565b60008484015250505050565b60006120e982612098565b6120f381856120a3565b93506121038185602086016120b4565b61210c81611ca5565b840191505092915050565b600081519050919050565b600082825260208201905092915050565b6000819050602082019050919050565b600061214f83836120de565b905092915050565b6000602082019050919050565b600061216f82612117565b6121798185612122565b93508360208202850161218b85612133565b8060005b858110156121c757848403895281516121a88582612143565b94506121b383612157565b925060208a0199505060018101905061218f565b50829750879550505050505092915050565b600060e0830160008301516121f16000860182612068565b5060208301516122046020860182612089565b506040830151848203604086015261221c82826120de565b9150506060830151848203606086015261223682826120de565b9150506080830151848203608086015261225082826120de565b91505060a083015161226560a0860182612068565b5060c083015184820360c086015261227d8282612164565b9150508091505092915050565b600061229683836121d9565b905092915050565b6000602082019050919050565b60006122b68261203c565b6122c08185612047565b9350836020820285016122d285612058565b8060005b8581101561230e57848403895281516122ef858261228a565b94506122fa8361229e565b925060208a019950506001810190506122d6565b50829750879550505050505092915050565b6000602082019050818103600083015261233a81846122ab565b905092915050565b6000806040838503121561235957612358611b52565b5b600061236785828601611b7d565b925050602061237885828601611b7d565b9150509250929050565b61238b81611c62565b82525050565b600082825260208201905092915050565b60006123ad82612098565b6123b78185612391565b93506123c78185602086016120b4565b6123d081611ca5565b840191505092915050565b60006080820190506123f06000830187611c00565b6123fd6020830186611bbf565b61240a6040830185612382565b818103606083015261241c81846123a2565b905095945050505050565b6000806000606084860312156124405761243f611b52565b5b600061244e86828701611b7d565b935050602061245f86828701611b7d565b925050604061247086828701611b7d565b9150509250925092565b61248381612077565b82525050565b600060c08201905061249e6000830189611bbf565b6124ab602083018861247a565b81810360408301526124bd81876123a2565b905081810360608301526124d181866123a2565b905081810360808301526124e581856123a2565b90506124f460a0830184611bbf565b979650505050505050565b600081519050919050565b600082825260208201905092915050565b6000819050602082019050919050565b61253481611bee565b82525050565b61254381611c62565b82525050565b6000608083016000830151612561600086018261252b565b5060208301516125746020860182612068565b506040830151612587604086018261253a565b506060830151848203606086015261259f82826120de565b9150508091505092915050565b60006125b88383612549565b905092915050565b6000602082019050919050565b60006125d8826124ff565b6125e2818561250a565b9350836020820285016125f48561251b565b8060005b85811015612630578484038952815161261185826125ac565b945061261c836125c0565b925060208a019950506001810190506125f8565b50829750879550505050505092915050565b6000602082019050818103600083015261265c81846125cd565b905092915050565b600081519050919050565b600082825260208201905092915050565b6000819050602082019050919050565b60a0820160008201516126a66000850182612068565b5060208201516126b9602085018261252b565b5060408201516126cc6040850182612068565b5060608201516126df6060850182612068565b5060808201516126f26080850182612068565b50505050565b60006127048383612690565b60a08301905092915050565b6000602082019050919050565b600061272882612664565b612732818561266f565b935061273d83612680565b8060005b8381101561276e57815161275588826126f8565b975061276083612710565b925050600181019050612741565b5085935050505092915050565b60006020820190508181036000830152612795818461271d565b905092915050565b7f526174696e67206d6f7261206269746920312d35000000000000000000000000600082015250565b60006127d3601483612391565b91506127de8261279d565b602082019050919050565b60006020820190508181036000830152612802816127c6565b9050919050565b7f4e487b7100000000000000000000000000000000000000000000000000000000600052601160045260246000fd5b600061284382611b5c565b91507fffffffffffffffffffffffffffffffffffffffffffffffffffffffffffffffff820361287557612874612809565b5b600182019050919050565b7f4e697374652072657a6572766972616c69206f76616a206f626a656b742e0000600082015250565b60006128b6601e83612391565b91506128c182612880565b602082019050919050565b600060208201905081810360008301526128e5816128a9565b9050919050565b7f4e487b7100000000000000000000000000000000000000000000000000000000600052602260045260246000fd5b6000600282049050600182168061293357607f821691505b602082108103612946576129456128ec565b5b50919050565b60008190508160005260206000209050919050565b60006020601f8301049050919050565b600082821b905092915050565b6000600883026129ae7fffffffffffffffffffffffffffffffffffffffffffffffffffffffffffffffff82612971565b6129b88683612971565b95508019841693508086168417925050509392505050565b6000819050919050565b60006129f56129f06129eb84611b5c565b6129d0565b611b5c565b9050919050565b6000819050919050565b612a0f836129da565b612a23612a1b826129fc565b84845461297e565b825550505050565b600090565b612a38612a2b565b612a43818484612a06565b505050565b5b81811015612a6757612a5c600082612a30565b600181019050612a49565b5050565b601f821115612aac57612a7d8161294c565b612a8684612961565b81016020851015612a95578190505b612aa9612aa185612961565b830182612a48565b50505b505050565b600082821c905092915050565b6000612acf60001984600802612ab1565b1980831691505092915050565b6000612ae88383612abe565b9150826002028217905092915050565b612b0182612098565b67ffffffffffffffff811115612b1a57612b19611cb6565b5b612b24825461291b565b612b2f828285612a6b565b600060209050601f831160018114612b625760008415612b50578287015190505b612b5a8582612adc565b865550612bc2565b601f198416612b708661294c565b60005b82811015612b9857848901518255600182019150602085019450602081019050612b73565b86831015612bb55784890151612bb1601f891682612abe565b8355505b6001600288020188555050505b505050505050565b6000606082019050612bdf6000830186611bbf565b612bec6020830185611c00565b8181036040830152612bfe81846123a2565b9050949350505050565b7f52657a6572766163696a61206e6520706f73746f6a692e000000000000000000600082015250565b6000612c3e601783612391565b9150612c4982612c08565b602082019050919050565b60006020820190508181036000830152612c6d81612c31565b9050919050565b7f4e6973746520766c61736e696b2072657a6572766163696a652e000000000000600082015250565b6000612caa601a83612391565b9150612cb582612c74565b602082019050919050565b60006020820190508181036000830152612cd981612c9d565b9050919050565b6000612ceb82611b5c565b9150612cf683611b5c565b9250828203905081811115612d0e57612d0d612809565b5b92915050565b7f4e487b7100000000000000000000000000000000000000000000000000000000600052603260045260246000fd5b7f4c697374696e6720646f6573206e6f742065786973742e000000000000000000600082015250565b6000612d79601783612391565b9150612d8482612d43565b602082019050919050565b60006020820190508181036000830152612da881612d6c565b9050919050565b7f4e6f7420656e6f756768204554482073656e742e000000000000000000000000600082015250565b6000612de5601483612391565b9150612df082612daf565b602082019050919050565b60006020820190508181036000830152612e1481612dd8565b9050919050565b6000606082019050612e306000830186611bbf565b612e3d6020830185611c00565b612e4a6040830184611bbf565b949350505050565b7f4f676c6173206e6520706f73746f6a692e000000000000000000000000000000600082015250565b6000612e88601183612391565b9150612e9382612e52565b602082019050919050565b60006020820190508181036000830152612eb781612e7b565b9050919050565b7f4e6973746520766c61736e696b206f676c6173612e0000000000000000000000600082015250565b6000612ef4601583612391565b9150612eff82612ebe565b602082019050919050565b60006020820190508181036000830152612f2381612ee7565b905091905056fea2646970667358221220d5d291c428d6997cbef947e1a7a712f7bf7b8a52e256682d88e09df9c39622eb64736f6c63430008120033",
  "linkReferences": {},
  "deployedLinkReferences": {}
}