{
  "_format": "hh-sol-artifact-1",
  "contractName": "mStay",
  "sourceName": "contracts/mStay.sol",
  "abi": [
    {
      "anonymous": false,
      "inputs": [
        {
          "indexed": false,
          "internalType": "uint256",
          "name": "id",
          "type": "uint256"
        },
        {
          "indexed": false,
          "internalType": "address",
          "name": "owner",
          "type": "address"
        },
        {
          "indexed": false,
          "internalType": "string",
          "name": "title",
          "type": "string"
        }
      ],
      "name": "ListingCreated",
      "type": "event"
    },
    {
      "anonymous": false,
      "inputs": [
        {
          "indexed": false,
          "internalType": "uint256",
          "name": "id",
          "type": "uint256"
        },
        {
          "indexed": false,
          "internalType": "address",
          "name": "guest",
          "type": "address"
        },
        {
          "indexed": false,
          "internalType": "uint256",
          "name": "listingId",
          "type": "uint256"
        }
      ],
      "name": "ReservationMade",
      "type": "event"
    },
    {
      "inputs": [
        {
          "internalType": "uint256",
          "name": "_reservationId",
          "type": "uint256"
        }
      ],
      "name": "cancelReservation",
      "outputs": [],
      "stateMutability": "nonpayable",
      "type": "function"
    },
    {
      "inputs": [
        {
          "internalType": "string",
          "name": "_title",
          "type": "string"
        },
        {
          "internalType": "string",
          "name": "_location",
          "type": "string"
        },
        {
          "internalType": "string",
          "name": "_description",
          "type": "string"
        },
        {
          "internalType": "uint256",
          "name": "_pricePerNight",
          "type": "uint256"
        },
        {
          "internalType": "string[]",
          "name": "_images",
          "type": "string[]"
        },
        {
          "internalType": "bool[23]",
          "name": "_amenities",
          "type": "bool[23]"
        },
        {
          "internalType": "uint8",
          "name": "_guests",
          "type": "uint8"
        },
        {
          "internalType": "uint8",
          "name": "_bedrooms",
          "type": "uint8"
        },
        {
          "internalType": "uint8",
          "name": "_beds",
          "type": "uint8"
        },
        {
          "internalType": "uint8",
          "name": "_bathrooms",
          "type": "uint8"
        }
      ],
      "name": "createListing",
      "outputs": [],
      "stateMutability": "nonpayable",
      "type": "function"
    },
    {
      "inputs": [
        {
          "internalType": "uint256",
          "name": "_listingId",
          "type": "uint256"
        }
      ],
      "name": "deleteListing",
      "outputs": [],
      "stateMutability": "nonpayable",
      "type": "function"
    },
    {
      "inputs": [],
      "name": "getAllListings",
      "outputs": [
        {
          "components": [
            {
              "internalType": "uint256",
              "name": "id",
              "type": "uint256"
            },
            {
              "internalType": "address payable",
              "name": "owner",
              "type": "address"
            },
            {
              "internalType": "string",
              "name": "title",
              "type": "string"
            },
            {
              "internalType": "string",
              "name": "location",
              "type": "string"
            },
            {
              "internalType": "string",
              "name": "description",
              "type": "string"
            },
            {
              "internalType": "uint256",
              "name": "pricePerNight",
              "type": "uint256"
            },
            {
              "internalType": "string[]",
              "name": "images",
              "type": "string[]"
            },
            {
              "internalType": "bool[23]",
              "name": "amenities",
              "type": "bool[23]"
            },
            {
              "internalType": "uint8",
              "name": "guests",
              "type": "uint8"
            },
            {
              "internalType": "uint8",
              "name": "bedrooms",
              "type": "uint8"
            },
            {
              "internalType": "uint8",
              "name": "beds",
              "type": "uint8"
            },
            {
              "internalType": "uint8",
              "name": "bathrooms",
              "type": "uint8"
            }
          ],
          "internalType": "struct mStay.Listing[]",
          "name": "",
          "type": "tuple[]"
        }
      ],
      "stateMutability": "view",
      "type": "function"
    },
    {
      "inputs": [],
      "name": "getAllReservations",
      "outputs": [
        {
          "components": [
            {
              "internalType": "uint256",
              "name": "id",
              "type": "uint256"
            },
            {
              "internalType": "address",
              "name": "guest",
              "type": "address"
            },
            {
              "internalType": "uint256",
              "name": "listingId",
              "type": "uint256"
            },
            {
              "internalType": "uint256",
              "name": "checkInDate",
              "type": "uint256"
            },
            {
              "internalType": "uint256",
              "name": "checkOutDate",
              "type": "uint256"
            }
          ],
          "internalType": "struct mStay.Reservation[]",
          "name": "",
          "type": "tuple[]"
        }
      ],
      "stateMutability": "view",
      "type": "function"
    },
    {
      "inputs": [
        {
          "internalType": "uint256",
          "name": "_listingId",
          "type": "uint256"
        }
      ],
      "name": "getReviewsForListing",
      "outputs": [
        {
          "components": [
            {
              "internalType": "address",
              "name": "reviewer",
              "type": "address"
            },
            {
              "internalType": "uint256",
              "name": "listingId",
              "type": "uint256"
            },
            {
              "internalType": "uint8",
              "name": "rating",
              "type": "uint8"
            },
            {
              "internalType": "string",
              "name": "comment",
              "type": "string"
            }
          ],
          "internalType": "struct mStay.Review[]",
          "name": "",
          "type": "tuple[]"
        }
      ],
      "stateMutability": "view",
      "type": "function"
    },
    {
      "inputs": [
        {
          "internalType": "uint256",
          "name": "_listingId",
          "type": "uint256"
        },
        {
          "internalType": "uint8",
          "name": "_rating",
          "type": "uint8"
        },
        {
          "internalType": "string",
          "name": "_comment",
          "type": "string"
        }
      ],
      "name": "leaveReview",
      "outputs": [],
      "stateMutability": "nonpayable",
      "type": "function"
    },
    {
      "inputs": [],
      "name": "listingCount",
      "outputs": [
        {
          "internalType": "uint256",
          "name": "",
          "type": "uint256"
        }
      ],
      "stateMutability": "view",
      "type": "function"
    },
    {
      "inputs": [
        {
          "internalType": "uint256",
          "name": "",
          "type": "uint256"
        },
        {
          "internalType": "uint256",
          "name": "",
          "type": "uint256"
        }
      ],
      "name": "listingReviews",
      "outputs": [
        {
          "internalType": "address",
          "name": "reviewer",
          "type": "address"
        },
        {
          "internalType": "uint256",
          "name": "listingId",
          "type": "uint256"
        },
        {
          "internalType": "uint8",
          "name": "rating",
          "type": "uint8"
        },
        {
          "internalType": "string",
          "name": "comment",
          "type": "string"
        }
      ],
      "stateMutability": "view",
      "type": "function"
    },
    {
      "inputs": [
        {
          "internalType": "uint256",
          "name": "",
          "type": "uint256"
        }
      ],
      "name": "listings",
      "outputs": [
        {
          "internalType": "uint256",
          "name": "id",
          "type": "uint256"
        },
        {
          "internalType": "address payable",
          "name": "owner",
          "type": "address"
        },
        {
          "internalType": "string",
          "name": "title",
          "type": "string"
        },
        {
          "internalType": "string",
          "name": "location",
          "type": "string"
        },
        {
          "internalType": "string",
          "name": "description",
          "type": "string"
        },
        {
          "internalType": "uint256",
          "name": "pricePerNight",
          "type": "uint256"
        },
        {
          "internalType": "uint8",
          "name": "guests",
          "type": "uint8"
        },
        {
          "internalType": "uint8",
          "name": "bedrooms",
          "type": "uint8"
        },
        {
          "internalType": "uint8",
          "name": "beds",
          "type": "uint8"
        },
        {
          "internalType": "uint8",
          "name": "bathrooms",
          "type": "uint8"
        }
      ],
      "stateMutability": "view",
      "type": "function"
    },
    {
      "inputs": [
        {
          "internalType": "uint256",
          "name": "_listingId",
          "type": "uint256"
        },
        {
          "internalType": "uint256",
          "name": "_checkInDate",
          "type": "uint256"
        },
        {
          "internalType": "uint256",
          "name": "_checkOutDate",
          "type": "uint256"
        }
      ],
      "name": "makeReservation",
      "outputs": [],
      "stateMutability": "payable",
      "type": "function"
    },
    {
      "inputs": [],
      "name": "reservationCount",
      "outputs": [
        {
          "internalType": "uint256",
          "name": "",
          "type": "uint256"
        }
      ],
      "stateMutability": "view",
      "type": "function"
    },
    {
      "inputs": [
        {
          "internalType": "uint256",
          "name": "",
          "type": "uint256"
        }
      ],
      "name": "reservations",
      "outputs": [
        {
          "internalType": "uint256",
          "name": "id",
          "type": "uint256"
        },
        {
          "internalType": "address",
          "name": "guest",
          "type": "address"
        },
        {
          "internalType": "uint256",
          "name": "listingId",
          "type": "uint256"
        },
        {
          "internalType": "uint256",
          "name": "checkInDate",
          "type": "uint256"
        },
        {
          "internalType": "uint256",
          "name": "checkOutDate",
          "type": "uint256"
        }
      ],
      "stateMutability": "view",
      "type": "function"
    }
  ],
  "bytecode": "0x608060405234801561001057600080fd5b50613634806100206000396000f3fe6080604052600436106100c25760003560e01c8063d0028a031161007f578063e6282c6e11610059578063e6282c6e1461027b578063e84f756e146102a4578063f3fb3c88146102cf578063fbc628331461030c576100c2565b8063d0028a03146101f0578063de06e7a614610219578063de74e57b14610235576100c2565b8063067cf832146100c75780630dc9759d14610108578063a9b07c2614610131578063ae5e6cf41461015c578063ae73ccec14610185578063c978f65e146101b0575b600080fd5b3480156100d357600080fd5b506100ee60048036038101906100e99190611fc9565b610337565b6040516100ff959493929190612046565b60405180910390f35b34801561011457600080fd5b5061012f600480360381019061012a9190612218565b61038d565b005b34801561013d57600080fd5b506101466105e3565b6040516101539190612287565b60405180910390f35b34801561016857600080fd5b50610183600480360381019061017e9190611fc9565b6105e9565b005b34801561019157600080fd5b5061019a6107a3565b6040516101a791906126b4565b60405180910390f35b3480156101bc57600080fd5b506101d760048036038101906101d291906126d6565b610c49565b6040516101e7949392919061276f565b60405180910390f35b3480156101fc57600080fd5b506102176004803603810190610212919061297e565b610d4b565b005b610233600480360381019061022e9190612acf565b610f92565b005b34801561024157600080fd5b5061025c60048036038101906102579190611fc9565b6115b2565b6040516102729a99989796959493929190612b31565b60405180910390f35b34801561028757600080fd5b506102a2600480360381019061029d9190611fc9565b6117f2565b005b3480156102b057600080fd5b506102b9611a1f565b6040516102c69190612287565b60405180910390f35b3480156102db57600080fd5b506102f660048036038101906102f19190611fc9565b611a25565b6040516103039190612d16565b60405180910390f35b34801561031857600080fd5b50610321611ba6565b60405161032e9190612e4f565b60405180910390f35b60036020528060005260406000206000915090508060000154908060010160009054906101000a900473ffffffffffffffffffffffffffffffffffffffff16908060020154908060030154908060040154905085565b60018260ff16101580156103a5575060058260ff1611155b6103e4576040517f08c379a00000000000000000000000000000000000000000000000000000000081526004016103db90612ebd565b60405180910390fd5b600080600190505b600154811161049c5784600360008381526020019081526020016000206002015414801561047b57503373ffffffffffffffffffffffffffffffffffffffff166003600083815260200190815260200160002060010160009054906101000a900473ffffffffffffffffffffffffffffffffffffffff1673ffffffffffffffffffffffffffffffffffffffff16145b15610489576001915061049c565b808061049490612f0c565b9150506103ec565b50806104dd576040517f08c379a00000000000000000000000000000000000000000000000000000000081526004016104d490612fa0565b60405180910390fd5b6004600085815260200190815260200160002060405180608001604052803373ffffffffffffffffffffffffffffffffffffffff1681526020018681526020018560ff16815260200184815250908060018154018082558091505060019003906000526020600020906004020160009091909190915060008201518160000160006101000a81548173ffffffffffffffffffffffffffffffffffffffff021916908373ffffffffffffffffffffffffffffffffffffffff1602179055506020820151816001015560408201518160020160006101000a81548160ff021916908360ff16021790555060608201518160030190816105da91906131cc565b50505050505050565b60005481565b6000600360008381526020019081526020016000206040518060a0016040529081600082015481526020016001820160009054906101000a900473ffffffffffffffffffffffffffffffffffffffff1673ffffffffffffffffffffffffffffffffffffffff1673ffffffffffffffffffffffffffffffffffffffff1681526020016002820154815260200160038201548152602001600482015481525050905060008160000151036106d0576040517f08c379a00000000000000000000000000000000000000000000000000000000081526004016106c7906132ea565b60405180910390fd5b3373ffffffffffffffffffffffffffffffffffffffff16816020015173ffffffffffffffffffffffffffffffffffffffff1614610742576040517f08c379a000000000000000000000000000000000000000000000000000000000815260040161073990613356565b60405180910390fd5b600360008381526020019081526020016000206000808201600090556001820160006101000a81549073ffffffffffffffffffffffffffffffffffffffff021916905560028201600090556003820160009055600482016000905550505050565b60606000805467ffffffffffffffff8111156107c2576107c16120ed565b5b6040519080825280602002602001820160405280156107fb57816020015b6107e8611cf3565b8152602001906001900390816107e05790505b5090506000600190505b6000548111610c41576002600082815260200190815260200160002060405180610180016040529081600082015481526020016001820160009054906101000a900473ffffffffffffffffffffffffffffffffffffffff1673ffffffffffffffffffffffffffffffffffffffff1673ffffffffffffffffffffffffffffffffffffffff16815260200160028201805461089d90612fef565b80601f01602080910402602001604051908101604052809291908181526020018280546108c990612fef565b80156109165780601f106108eb57610100808354040283529160200191610916565b820191906000526020600020905b8154815290600101906020018083116108f957829003601f168201915b5050505050815260200160038201805461092f90612fef565b80601f016020809104026020016040519081016040528092919081815260200182805461095b90612fef565b80156109a85780601f1061097d576101008083540402835291602001916109a8565b820191906000526020600020905b81548152906001019060200180831161098b57829003601f168201915b505050505081526020016004820180546109c190612fef565b80601f01602080910402602001604051908101604052809291908181526020018280546109ed90612fef565b8015610a3a5780601f10610a0f57610100808354040283529160200191610a3a565b820191906000526020600020905b815481529060010190602001808311610a1d57829003601f168201915b505050505081526020016005820154815260200160068201805480602002602001604051908101604052809291908181526020016000905b82821015610b1e578382906000526020600020018054610a9190612fef565b80601f0160208091040260200160405190810160405280929190818152602001828054610abd90612fef565b8015610b0a5780601f10610adf57610100808354040283529160200191610b0a565b820191906000526020600020905b815481529060010190602001808311610aed57829003601f168201915b505050505081526020019060010190610a72565b50505050815260200160078201601780602002604051908101604052809291908260178015610b87576020028201916000905b82829054906101000a900460ff16151581526020019060010190602082600001049283019260010382029150808411610b515790505b505050505081526020016008820160009054906101000a900460ff1660ff1660ff1681526020016008820160019054906101000a900460ff1660ff1660ff1681526020016008820160029054906101000a900460ff1660ff1660ff1681526020016008820160039054906101000a900460ff1660ff1660ff168152505082600183610c129190613376565b81518110610c2357610c226133aa565b5b60200260200101819052508080610c3990612f0c565b915050610805565b508091505090565b60046020528160005260406000208181548110610c6557600080fd5b9060005260206000209060040201600091509150508060000160009054906101000a900473ffffffffffffffffffffffffffffffffffffffff16908060010154908060020160009054906101000a900460ff1690806003018054610cc890612fef565b80601f0160208091040260200160405190810160405280929190818152602001828054610cf490612fef565b8015610d415780601f10610d1657610100808354040283529160200191610d41565b820191906000526020600020905b815481529060010190602001808311610d2457829003601f168201915b5050505050905084565b600080815480929190610d5d90612f0c565b919050555060405180610180016040528060005481526020013373ffffffffffffffffffffffffffffffffffffffff1681526020018b81526020018a81526020018981526020018881526020018781526020018681526020018560ff1681526020018460ff1681526020018360ff1681526020018260ff1681525060026000805481526020019081526020016000206000820151816000015560208201518160010160006101000a81548173ffffffffffffffffffffffffffffffffffffffff021916908373ffffffffffffffffffffffffffffffffffffffff1602179055506040820151816002019081610e5291906131cc565b506060820151816003019081610e6891906131cc565b506080820151816004019081610e7e91906131cc565b5060a0820151816005015560c0820151816006019080519060200190610ea5929190611d7c565b5060e082015181600701906017610ebd929190611dd5565b506101008201518160080160006101000a81548160ff021916908360ff1602179055506101208201518160080160016101000a81548160ff021916908360ff1602179055506101408201518160080160026101000a81548160ff021916908360ff1602179055506101608201518160080160036101000a81548160ff021916908360ff1602179055509050507ffccfab3757a37767d03b5ffd499faaa9faf5a6d33900ee43e310e77bce34940b600054338c604051610f7e939291906133d9565b60405180910390a150505050505050505050565b60006002600085815260200190815260200160002060405180610180016040529081600082015481526020016001820160009054906101000a900473ffffffffffffffffffffffffffffffffffffffff1673ffffffffffffffffffffffffffffffffffffffff1673ffffffffffffffffffffffffffffffffffffffff16815260200160028201805461102390612fef565b80601f016020809104026020016040519081016040528092919081815260200182805461104f90612fef565b801561109c5780601f106110715761010080835404028352916020019161109c565b820191906000526020600020905b81548152906001019060200180831161107f57829003601f168201915b505050505081526020016003820180546110b590612fef565b80601f01602080910402602001604051908101604052809291908181526020018280546110e190612fef565b801561112e5780601f106111035761010080835404028352916020019161112e565b820191906000526020600020905b81548152906001019060200180831161111157829003601f168201915b5050505050815260200160048201805461114790612fef565b80601f016020809104026020016040519081016040528092919081815260200182805461117390612fef565b80156111c05780601f10611195576101008083540402835291602001916111c0565b820191906000526020600020905b8154815290600101906020018083116111a357829003601f168201915b505050505081526020016005820154815260200160068201805480602002602001604051908101604052809291908181526020016000905b828210156112a457838290600052602060002001805461121790612fef565b80601f016020809104026020016040519081016040528092919081815260200182805461124390612fef565b80156112905780601f1061126557610100808354040283529160200191611290565b820191906000526020600020905b81548152906001019060200180831161127357829003601f168201915b5050505050815260200190600101906111f8565b5050505081526020016007820160178060200260405190810160405280929190826017801561130d576020028201916000905b82829054906101000a900460ff161515815260200190600101906020826000010492830192600103820291508084116112d75790505b505050505081526020016008820160009054906101000a900460ff1660ff1660ff1681526020016008820160019054906101000a900460ff1660ff1660ff1681526020016008820160029054906101000a900460ff1660ff1660ff1681526020016008820160039054906101000a900460ff1660ff1660ff16815250509050600073ffffffffffffffffffffffffffffffffffffffff16816020015173ffffffffffffffffffffffffffffffffffffffff16036113ff576040517f08c379a00000000000000000000000000000000000000000000000000000000081526004016113f690613463565b60405180910390fd5b8060a00151341015611446576040517f08c379a000000000000000000000000000000000000000000000000000000000815260040161143d906134cf565b60405180910390fd5b6001600081548092919061145990612f0c565b91905055506040518060a0016040528060015481526020013373ffffffffffffffffffffffffffffffffffffffff168152602001858152602001848152602001838152506003600060015481526020019081526020016000206000820151816000015560208201518160010160006101000a81548173ffffffffffffffffffffffffffffffffffffffff021916908373ffffffffffffffffffffffffffffffffffffffff160217905550604082015181600201556060820151816003015560808201518160040155905050806020015173ffffffffffffffffffffffffffffffffffffffff166108fc349081150290604051600060405180830381858888f1935050505015801561156e573d6000803e3d6000fd5b507f1454e9ce257a8f02d1dcfcab9cf23320507f1597a918e65c2ab9e457f9acb2cc60015433866040516115a4939291906134ef565b60405180910390a150505050565b60026020528060005260406000206000915090508060000154908060010160009054906101000a900473ffffffffffffffffffffffffffffffffffffffff169080600201805461160190612fef565b80601f016020809104026020016040519081016040528092919081815260200182805461162d90612fef565b801561167a5780601f1061164f5761010080835404028352916020019161167a565b820191906000526020600020905b81548152906001019060200180831161165d57829003601f168201915b50505050509080600301805461168f90612fef565b80601f01602080910402602001604051908101604052809291908181526020018280546116bb90612fef565b80156117085780601f106116dd57610100808354040283529160200191611708565b820191906000526020600020905b8154815290600101906020018083116116eb57829003601f168201915b50505050509080600401805461171d90612fef565b80601f016020809104026020016040519081016040528092919081815260200182805461174990612fef565b80156117965780601f1061176b57610100808354040283529160200191611796565b820191906000526020600020905b81548152906001019060200180831161177957829003601f168201915b5050505050908060050154908060080160009054906101000a900460ff16908060080160019054906101000a900460ff16908060080160029054906101000a900460ff16908060080160039054906101000a900460ff1690508a565b6000600260008381526020019081526020016000209050600073ffffffffffffffffffffffffffffffffffffffff168160010160009054906101000a900473ffffffffffffffffffffffffffffffffffffffff1673ffffffffffffffffffffffffffffffffffffffff160361189c576040517f08c379a000000000000000000000000000000000000000000000000000000000815260040161189390613572565b60405180910390fd5b3373ffffffffffffffffffffffffffffffffffffffff168160010160009054906101000a900473ffffffffffffffffffffffffffffffffffffffff1673ffffffffffffffffffffffffffffffffffffffff161461192e576040517f08c379a0000000000000000000000000000000000000000000000000000000008152600401611925906135de565b60405180910390fd5b600260008381526020019081526020016000206000808201600090556001820160006101000a81549073ffffffffffffffffffffffffffffffffffffffff02191690556002820160006119819190611e6e565b6003820160006119919190611e6e565b6004820160006119a19190611e6e565b60058201600090556006820160006119b99190611eae565b6007820160006119c99190611ecf565b6008820160006101000a81549060ff02191690556008820160016101000a81549060ff02191690556008820160026101000a81549060ff02191690556008820160036101000a81549060ff021916905550505050565b60015481565b606060046000838152602001908152602001600020805480602002602001604051908101604052809291908181526020016000905b82821015611b9b57838290600052602060002090600402016040518060800160405290816000820160009054906101000a900473ffffffffffffffffffffffffffffffffffffffff1673ffffffffffffffffffffffffffffffffffffffff1673ffffffffffffffffffffffffffffffffffffffff168152602001600182015481526020016002820160009054906101000a900460ff1660ff1660ff168152602001600382018054611b0a90612fef565b80601f0160208091040260200160405190810160405280929190818152602001828054611b3690612fef565b8015611b835780601f10611b5857610100808354040283529160200191611b83565b820191906000526020600020905b815481529060010190602001808311611b6657829003601f168201915b50505050508152505081526020019060010190611a5a565b505050509050919050565b6060600060015467ffffffffffffffff811115611bc657611bc56120ed565b5b604051908082528060200260200182016040528015611bff57816020015b611bec611ed6565b815260200190600190039081611be45790505b5090506000600190505b6001548111611ceb57600360008281526020019081526020016000206040518060a0016040529081600082015481526020016001820160009054906101000a900473ffffffffffffffffffffffffffffffffffffffff1673ffffffffffffffffffffffffffffffffffffffff1673ffffffffffffffffffffffffffffffffffffffff168152602001600282015481526020016003820154815260200160048201548152505082600183611cbc9190613376565b81518110611ccd57611ccc6133aa565b5b60200260200101819052508080611ce390612f0c565b915050611c09565b508091505090565b60405180610180016040528060008152602001600073ffffffffffffffffffffffffffffffffffffffff1681526020016060815260200160608152602001606081526020016000815260200160608152602001611d4e611f1b565b8152602001600060ff168152602001600060ff168152602001600060ff168152602001600060ff1681525090565b828054828255906000526020600020908101928215611dc4579160200282015b82811115611dc3578251829081611db391906131cc565b5091602001919060010190611d9c565b5b509050611dd19190611f3e565b5090565b826017601f01602090048101928215611e5d5791602002820160005b83821115611e2e57835183826101000a81548160ff0219169083151502179055509260200192600101602081600001049283019260010302611df1565b8015611e5b5782816101000a81549060ff0219169055600101602081600001049283019260010302611e2e565b505b509050611e6a9190611f62565b5090565b508054611e7a90612fef565b6000825580601f10611e8c5750611eab565b601f016020900490600052602060002090810190611eaa9190611f62565b5b50565b5080546000825590600052602060002090810190611ecc9190611f3e565b50565b5060009055565b6040518060a0016040528060008152602001600073ffffffffffffffffffffffffffffffffffffffff1681526020016000815260200160008152602001600081525090565b604051806102e00160405280601790602082028036833780820191505090505090565b5b80821115611f5e5760008181611f559190611e6e565b50600101611f3f565b5090565b5b80821115611f7b576000816000905550600101611f63565b5090565b6000604051905090565b600080fd5b600080fd5b6000819050919050565b611fa681611f93565b8114611fb157600080fd5b50565b600081359050611fc381611f9d565b92915050565b600060208284031215611fdf57611fde611f89565b5b6000611fed84828501611fb4565b91505092915050565b611fff81611f93565b82525050565b600073ffffffffffffffffffffffffffffffffffffffff82169050919050565b600061203082612005565b9050919050565b61204081612025565b82525050565b600060a08201905061205b6000830188611ff6565b6120686020830187612037565b6120756040830186611ff6565b6120826060830185611ff6565b61208f6080830184611ff6565b9695505050505050565b600060ff82169050919050565b6120af81612099565b81146120ba57600080fd5b50565b6000813590506120cc816120a6565b92915050565b600080fd5b600080fd5b6000601f19601f8301169050919050565b7f4e487b7100000000000000000000000000000000000000000000000000000000600052604160045260246000fd5b612125826120dc565b810181811067ffffffffffffffff82111715612144576121436120ed565b5b80604052505050565b6000612157611f7f565b9050612163828261211c565b919050565b600067ffffffffffffffff821115612183576121826120ed565b5b61218c826120dc565b9050602081019050919050565b82818337600083830152505050565b60006121bb6121b684612168565b61214d565b9050828152602081018484840111156121d7576121d66120d7565b5b6121e2848285612199565b509392505050565b600082601f8301126121ff576121fe6120d2565b5b813561220f8482602086016121a8565b91505092915050565b60008060006060848603121561223157612230611f89565b5b600061223f86828701611fb4565b9350506020612250868287016120bd565b925050604084013567ffffffffffffffff81111561227157612270611f8e565b5b61227d868287016121ea565b9150509250925092565b600060208201905061229c6000830184611ff6565b92915050565b600081519050919050565b600082825260208201905092915050565b6000819050602082019050919050565b6122d781611f93565b82525050565b60006122e882612005565b9050919050565b6122f8816122dd565b82525050565b600081519050919050565b600082825260208201905092915050565b60005b8381101561233857808201518184015260208101905061231d565b60008484015250505050565b600061234f826122fe565b6123598185612309565b935061236981856020860161231a565b612372816120dc565b840191505092915050565b600081519050919050565b600082825260208201905092915050565b6000819050602082019050919050565b60006123b58383612344565b905092915050565b6000602082019050919050565b60006123d58261237d565b6123df8185612388565b9350836020820285016123f185612399565b8060005b8581101561242d578484038952815161240e85826123a9565b9450612419836123bd565b925060208a019950506001810190506123f5565b50829750879550505050505092915050565b600060179050919050565b600081905092915050565b6000819050919050565b60008115159050919050565b6124748161245f565b82525050565b6000612486838361246b565b60208301905092915050565b6000602082019050919050565b6124a88161243f565b6124b2818461244a565b92506124bd82612455565b8060005b838110156124ee5781516124d5878261247a565b96506124e083612492565b9250506001810190506124c1565b505050505050565b6124ff81612099565b82525050565b60006104408301600083015161251e60008601826122ce565b50602083015161253160208601826122ef565b50604083015184820360408601526125498282612344565b915050606083015184820360608601526125638282612344565b9150506080830151848203608086015261257d8282612344565b91505060a083015161259260a08601826122ce565b5060c083015184820360c08601526125aa82826123ca565b91505060e08301516125bf60e086018261249f565b506101008301516125d46103c08601826124f6565b506101208301516125e96103e08601826124f6565b506101408301516125fe6104008601826124f6565b506101608301516126136104208601826124f6565b508091505092915050565b600061262a8383612505565b905092915050565b6000602082019050919050565b600061264a826122a2565b61265481856122ad565b935083602082028501612666856122be565b8060005b858110156126a25784840389528151612683858261261e565b945061268e83612632565b925060208a0199505060018101905061266a565b50829750879550505050505092915050565b600060208201905081810360008301526126ce818461263f565b905092915050565b600080604083850312156126ed576126ec611f89565b5b60006126fb85828601611fb4565b925050602061270c85828601611fb4565b9150509250929050565b61271f81612099565b82525050565b600082825260208201905092915050565b6000612741826122fe565b61274b8185612725565b935061275b81856020860161231a565b612764816120dc565b840191505092915050565b60006080820190506127846000830187612037565b6127916020830186611ff6565b61279e6040830185612716565b81810360608301526127b08184612736565b905095945050505050565b600067ffffffffffffffff8211156127d6576127d56120ed565b5b602082029050602081019050919050565b600080fd5b60006127ff6127fa846127bb565b61214d565b90508083825260208201905060208402830185811115612822576128216127e7565b5b835b8181101561286957803567ffffffffffffffff811115612847576128466120d2565b5b80860161285489826121ea565b85526020850194505050602081019050612824565b5050509392505050565b600082601f830112612888576128876120d2565b5b81356128988482602086016127ec565b91505092915050565b600067ffffffffffffffff8211156128bc576128bb6120ed565b5b602082029050919050565b6128d08161245f565b81146128db57600080fd5b50565b6000813590506128ed816128c7565b92915050565b6000612906612901846128a1565b61214d565b905080602084028301858111156129205761291f6127e7565b5b835b81811015612949578061293588826128de565b845260208401935050602081019050612922565b5050509392505050565b600082601f830112612968576129676120d2565b5b60176129758482856128f3565b91505092915050565b6000806000806000806000806000806104008b8d0312156129a2576129a1611f89565b5b60008b013567ffffffffffffffff8111156129c0576129bf611f8e565b5b6129cc8d828e016121ea565b9a505060208b013567ffffffffffffffff8111156129ed576129ec611f8e565b5b6129f98d828e016121ea565b99505060408b013567ffffffffffffffff811115612a1a57612a19611f8e565b5b612a268d828e016121ea565b9850506060612a378d828e01611fb4565b97505060808b013567ffffffffffffffff811115612a5857612a57611f8e565b5b612a648d828e01612873565b96505060a0612a758d828e01612953565b955050610380612a878d828e016120bd565b9450506103a0612a998d828e016120bd565b9350506103c0612aab8d828e016120bd565b9250506103e0612abd8d828e016120bd565b9150509295989b9194979a5092959850565b600080600060608486031215612ae857612ae7611f89565b5b6000612af686828701611fb4565b9350506020612b0786828701611fb4565b9250506040612b1886828701611fb4565b9150509250925092565b612b2b816122dd565b82525050565b600061014082019050612b47600083018d611ff6565b612b54602083018c612b22565b8181036040830152612b66818b612736565b90508181036060830152612b7a818a612736565b90508181036080830152612b8e8189612736565b9050612b9d60a0830188611ff6565b612baa60c0830187612716565b612bb760e0830186612716565b612bc5610100830185612716565b612bd3610120830184612716565b9b9a5050505050505050505050565b600081519050919050565b600082825260208201905092915050565b6000819050602082019050919050565b612c1781612025565b82525050565b6000608083016000830151612c356000860182612c0e565b506020830151612c4860208601826122ce565b506040830151612c5b60408601826124f6565b5060608301518482036060860152612c738282612344565b9150508091505092915050565b6000612c8c8383612c1d565b905092915050565b6000602082019050919050565b6000612cac82612be2565b612cb68185612bed565b935083602082028501612cc885612bfe565b8060005b85811015612d045784840389528151612ce58582612c80565b9450612cf083612c94565b925060208a01995050600181019050612ccc565b50829750879550505050505092915050565b60006020820190508181036000830152612d308184612ca1565b905092915050565b600081519050919050565b600082825260208201905092915050565b6000819050602082019050919050565b60a082016000820151612d7a60008501826122ce565b506020820151612d8d6020850182612c0e565b506040820151612da060408501826122ce565b506060820151612db360608501826122ce565b506080820151612dc660808501826122ce565b50505050565b6000612dd88383612d64565b60a08301905092915050565b6000602082019050919050565b6000612dfc82612d38565b612e068185612d43565b9350612e1183612d54565b8060005b83811015612e42578151612e298882612dcc565b9750612e3483612de4565b925050600181019050612e15565b5085935050505092915050565b60006020820190508181036000830152612e698184612df1565b905092915050565b7f526174696e67206d6f7261206269746920312d35000000000000000000000000600082015250565b6000612ea7601483612725565b9150612eb282612e71565b602082019050919050565b60006020820190508181036000830152612ed681612e9a565b9050919050565b7f4e487b7100000000000000000000000000000000000000000000000000000000600052601160045260246000fd5b6000612f1782611f93565b91507fffffffffffffffffffffffffffffffffffffffffffffffffffffffffffffffff8203612f4957612f48612edd565b5b600182019050919050565b7f4e697374652072657a6572766972616c69206f76616a206f626a656b742e0000600082015250565b6000612f8a601e83612725565b9150612f9582612f54565b602082019050919050565b60006020820190508181036000830152612fb981612f7d565b9050919050565b7f4e487b7100000000000000000000000000000000000000000000000000000000600052602260045260246000fd5b6000600282049050600182168061300757607f821691505b60208210810361301a57613019612fc0565b5b50919050565b60008190508160005260206000209050919050565b60006020601f8301049050919050565b600082821b905092915050565b6000600883026130827fffffffffffffffffffffffffffffffffffffffffffffffffffffffffffffffff82613045565b61308c8683613045565b95508019841693508086168417925050509392505050565b6000819050919050565b60006130c96130c46130bf84611f93565b6130a4565b611f93565b9050919050565b6000819050919050565b6130e3836130ae565b6130f76130ef826130d0565b848454613052565b825550505050565b600090565b61310c6130ff565b6131178184846130da565b505050565b5b8181101561313b57613130600082613104565b60018101905061311d565b5050565b601f8211156131805761315181613020565b61315a84613035565b81016020851015613169578190505b61317d61317585613035565b83018261311c565b50505b505050565b600082821c905092915050565b60006131a360001984600802613185565b1980831691505092915050565b60006131bc8383613192565b9150826002028217905092915050565b6131d5826122fe565b67ffffffffffffffff8111156131ee576131ed6120ed565b5b6131f88254612fef565b61320382828561313f565b600060209050601f8311600181146132365760008415613224578287015190505b61322e85826131b0565b865550613296565b601f19841661324486613020565b60005b8281101561326c57848901518255600182019150602085019450602081019050613247565b868310156132895784890151613285601f891682613192565b8355505b6001600288020188555050505b505050505050565b7f52657a6572766163696a61206e6520706f73746f6a692e000000000000000000600082015250565b60006132d4601783612725565b91506132df8261329e565b602082019050919050565b60006020820190508181036000830152613303816132c7565b9050919050565b7f4e6973746520766c61736e696b2072657a6572766163696a652e000000000000600082015250565b6000613340601a83612725565b915061334b8261330a565b602082019050919050565b6000602082019050818103600083015261336f81613333565b9050919050565b600061338182611f93565b915061338c83611f93565b92508282039050818111156133a4576133a3612edd565b5b92915050565b7f4e487b7100000000000000000000000000000000000000000000000000000000600052603260045260246000fd5b60006060820190506133ee6000830186611ff6565b6133fb6020830185612037565b818103604083015261340d8184612736565b9050949350505050565b7f4c697374696e6720646f6573206e6f742065786973742e000000000000000000600082015250565b600061344d601783612725565b915061345882613417565b602082019050919050565b6000602082019050818103600083015261347c81613440565b9050919050565b7f4e6f7420656e6f756768204554482073656e742e000000000000000000000000600082015250565b60006134b9601483612725565b91506134c482613483565b602082019050919050565b600060208201905081810360008301526134e8816134ac565b9050919050565b60006060820190506135046000830186611ff6565b6135116020830185612037565b61351e6040830184611ff6565b949350505050565b7f4f676c6173206e6520706f73746f6a692e000000000000000000000000000000600082015250565b600061355c601183612725565b915061356782613526565b602082019050919050565b6000602082019050818103600083015261358b8161354f565b9050919050565b7f4e6973746520766c61736e696b206f676c6173612e0000000000000000000000600082015250565b60006135c8601583612725565b91506135d382613592565b602082019050919050565b600060208201905081810360008301526135f7816135bb565b905091905056fea2646970667358221220ea1be7458062a1b6d0f43144776f2565f93d3fa29ef9afed93766f4016a7130964736f6c63430008120033",
  "linkReferences": {},
  "deployedLinkReferences": {}
}