{
  "_format": "hh-sol-artifact-1",
  "contractName": "mStay",
  "sourceName": "contracts/mStay.sol",
  "abi": [
    {
      "anonymous": false,
      "inputs": [
        {
          "indexed": false,
          "internalType": "uint256",
          "name": "id",
          "type": "uint256"
        },
        {
          "indexed": false,
          "internalType": "address",
          "name": "owner",
          "type": "address"
        },
        {
          "indexed": false,
          "internalType": "string",
          "name": "title",
          "type": "string"
        }
      ],
      "name": "ListingCreated",
      "type": "event"
    },
    {
      "anonymous": false,
      "inputs": [
        {
          "indexed": false,
          "internalType": "uint256",
          "name": "id",
          "type": "uint256"
        },
        {
          "indexed": false,
          "internalType": "address",
          "name": "guest",
          "type": "address"
        },
        {
          "indexed": false,
          "internalType": "uint256",
          "name": "listingId",
          "type": "uint256"
        }
      ],
      "name": "ReservationMade",
      "type": "event"
    },
    {
      "inputs": [
        {
          "internalType": "uint256",
          "name": "_reservationId",
          "type": "uint256"
        }
      ],
      "name": "cancelReservation",
      "outputs": [],
      "stateMutability": "nonpayable",
      "type": "function"
    },
    {
      "inputs": [
        {
          "internalType": "string",
          "name": "_title",
          "type": "string"
        },
        {
          "internalType": "string",
          "name": "_location",
          "type": "string"
        },
        {
          "internalType": "string",
          "name": "_description",
          "type": "string"
        },
        {
          "internalType": "uint256",
          "name": "_pricePerNight",
          "type": "uint256"
        },
        {
          "internalType": "string[]",
          "name": "_images",
          "type": "string[]"
        }
      ],
      "name": "createListing",
      "outputs": [],
      "stateMutability": "nonpayable",
      "type": "function"
    },
    {
      "inputs": [
        {
          "internalType": "uint256",
          "name": "_listingId",
          "type": "uint256"
        }
      ],
      "name": "deleteListing",
      "outputs": [],
      "stateMutability": "nonpayable",
      "type": "function"
    },
    {
      "inputs": [],
      "name": "getAllListings",
      "outputs": [
        {
          "components": [
            {
              "internalType": "uint256",
              "name": "id",
              "type": "uint256"
            },
            {
              "internalType": "address payable",
              "name": "owner",
              "type": "address"
            },
            {
              "internalType": "string",
              "name": "title",
              "type": "string"
            },
            {
              "internalType": "string",
              "name": "location",
              "type": "string"
            },
            {
              "internalType": "string",
              "name": "description",
              "type": "string"
            },
            {
              "internalType": "uint256",
              "name": "pricePerNight",
              "type": "uint256"
            },
            {
              "internalType": "string[]",
              "name": "images",
              "type": "string[]"
            }
          ],
          "internalType": "struct mStay.Listing[]",
          "name": "",
          "type": "tuple[]"
        }
      ],
      "stateMutability": "view",
      "type": "function"
    },
    {
      "inputs": [],
      "name": "getAllReservations",
      "outputs": [
        {
          "components": [
            {
              "internalType": "uint256",
              "name": "id",
              "type": "uint256"
            },
            {
              "internalType": "address",
              "name": "guest",
              "type": "address"
            },
            {
              "internalType": "uint256",
              "name": "listingId",
              "type": "uint256"
            },
            {
              "internalType": "uint256",
              "name": "checkInDate",
              "type": "uint256"
            },
            {
              "internalType": "uint256",
              "name": "checkOutDate",
              "type": "uint256"
            }
          ],
          "internalType": "struct mStay.Reservation[]",
          "name": "",
          "type": "tuple[]"
        }
      ],
      "stateMutability": "view",
      "type": "function"
    },
    {
      "inputs": [
        {
          "internalType": "uint256",
          "name": "_listingId",
          "type": "uint256"
        }
      ],
      "name": "getReviewsForListing",
      "outputs": [
        {
          "components": [
            {
              "internalType": "address",
              "name": "reviewer",
              "type": "address"
            },
            {
              "internalType": "uint256",
              "name": "listingId",
              "type": "uint256"
            },
            {
              "internalType": "uint8",
              "name": "rating",
              "type": "uint8"
            },
            {
              "internalType": "string",
              "name": "comment",
              "type": "string"
            }
          ],
          "internalType": "struct mStay.Review[]",
          "name": "",
          "type": "tuple[]"
        }
      ],
      "stateMutability": "view",
      "type": "function"
    },
    {
      "inputs": [
        {
          "internalType": "uint256",
          "name": "_listingId",
          "type": "uint256"
        },
        {
          "internalType": "uint8",
          "name": "_rating",
          "type": "uint8"
        },
        {
          "internalType": "string",
          "name": "_comment",
          "type": "string"
        }
      ],
      "name": "leaveReview",
      "outputs": [],
      "stateMutability": "nonpayable",
      "type": "function"
    },
    {
      "inputs": [],
      "name": "listingCount",
      "outputs": [
        {
          "internalType": "uint256",
          "name": "",
          "type": "uint256"
        }
      ],
      "stateMutability": "view",
      "type": "function"
    },
    {
      "inputs": [
        {
          "internalType": "uint256",
          "name": "",
          "type": "uint256"
        },
        {
          "internalType": "uint256",
          "name": "",
          "type": "uint256"
        }
      ],
      "name": "listingReviews",
      "outputs": [
        {
          "internalType": "address",
          "name": "reviewer",
          "type": "address"
        },
        {
          "internalType": "uint256",
          "name": "listingId",
          "type": "uint256"
        },
        {
          "internalType": "uint8",
          "name": "rating",
          "type": "uint8"
        },
        {
          "internalType": "string",
          "name": "comment",
          "type": "string"
        }
      ],
      "stateMutability": "view",
      "type": "function"
    },
    {
      "inputs": [
        {
          "internalType": "uint256",
          "name": "",
          "type": "uint256"
        }
      ],
      "name": "listings",
      "outputs": [
        {
          "internalType": "uint256",
          "name": "id",
          "type": "uint256"
        },
        {
          "internalType": "address payable",
          "name": "owner",
          "type": "address"
        },
        {
          "internalType": "string",
          "name": "title",
          "type": "string"
        },
        {
          "internalType": "string",
          "name": "location",
          "type": "string"
        },
        {
          "internalType": "string",
          "name": "description",
          "type": "string"
        },
        {
          "internalType": "uint256",
          "name": "pricePerNight",
          "type": "uint256"
        }
      ],
      "stateMutability": "view",
      "type": "function"
    },
    {
      "inputs": [
        {
          "internalType": "uint256",
          "name": "_listingId",
          "type": "uint256"
        },
        {
          "internalType": "uint256",
          "name": "_checkInDate",
          "type": "uint256"
        },
        {
          "internalType": "uint256",
          "name": "_checkOutDate",
          "type": "uint256"
        }
      ],
      "name": "makeReservation",
      "outputs": [],
      "stateMutability": "payable",
      "type": "function"
    },
    {
      "inputs": [],
      "name": "reservationCount",
      "outputs": [
        {
          "internalType": "uint256",
          "name": "",
          "type": "uint256"
        }
      ],
      "stateMutability": "view",
      "type": "function"
    },
    {
      "inputs": [
        {
          "internalType": "uint256",
          "name": "",
          "type": "uint256"
        }
      ],
      "name": "reservations",
      "outputs": [
        {
          "internalType": "uint256",
          "name": "id",
          "type": "uint256"
        },
        {
          "internalType": "address",
          "name": "guest",
          "type": "address"
        },
        {
          "internalType": "uint256",
          "name": "listingId",
          "type": "uint256"
        },
        {
          "internalType": "uint256",
          "name": "checkInDate",
          "type": "uint256"
        },
        {
          "internalType": "uint256",
          "name": "checkOutDate",
          "type": "uint256"
        }
      ],
      "stateMutability": "view",
      "type": "function"
    }
  ],
  "bytecode": "0x608060405234801561001057600080fd5b50613145806100206000396000f3fe6080604052600436106100c25760003560e01c8063c978f65e1161007f578063e6282c6e11610059578063e6282c6e14610277578063e84f756e146102a0578063f3fb3c88146102cb578063fbc6283314610308576100c2565b8063c978f65e146101d9578063de06e7a614610219578063de74e57b14610235576100c2565b8063067cf832146100c75780630dc9759d14610108578063507014c714610131578063a9b07c261461015a578063ae5e6cf414610185578063ae73ccec146101ae575b600080fd5b3480156100d357600080fd5b506100ee60048036038101906100e99190611de3565b610333565b6040516100ff959493929190611e60565b60405180910390f35b34801561011457600080fd5b5061012f600480360381019061012a9190612032565b610389565b005b34801561013d57600080fd5b5061015860048036038101906101539190612187565b6105df565b005b34801561016657600080fd5b5061016f610756565b60405161017c9190612272565b60405180910390f35b34801561019157600080fd5b506101ac60048036038101906101a79190611de3565b61075c565b005b3480156101ba57600080fd5b506101c3610916565b6040516101d09190612571565b60405180910390f35b3480156101e557600080fd5b5061020060048036038101906101fb9190612593565b610cdd565b604051610210949392919061262c565b60405180910390f35b610233600480360381019061022e9190612678565b610ddf565b005b34801561024157600080fd5b5061025c60048036038101906102579190611de3565b611320565b60405161026e969594939291906126da565b60405180910390f35b34801561028357600080fd5b5061029e60048036038101906102999190611de3565b611514565b005b3480156102ac57600080fd5b506102b5611932565b6040516102c29190612272565b60405180910390f35b3480156102d757600080fd5b506102f260048036038101906102ed9190611de3565b611938565b6040516102ff9190612893565b60405180910390f35b34801561031457600080fd5b5061031d611ab9565b60405161032a91906129cc565b60405180910390f35b60036020528060005260406000206000915090508060000154908060010160009054906101000a900473ffffffffffffffffffffffffffffffffffffffff16908060020154908060030154908060040154905085565b60018260ff16101580156103a1575060058260ff1611155b6103e0576040517f08c379a00000000000000000000000000000000000000000000000000000000081526004016103d790612a3a565b60405180910390fd5b600080600190505b60015481116104985784600360008381526020019081526020016000206002015414801561047757503373ffffffffffffffffffffffffffffffffffffffff166003600083815260200190815260200160002060010160009054906101000a900473ffffffffffffffffffffffffffffffffffffffff1673ffffffffffffffffffffffffffffffffffffffff16145b156104855760019150610498565b808061049090612a89565b9150506103e8565b50806104d9576040517f08c379a00000000000000000000000000000000000000000000000000000000081526004016104d090612b1d565b60405180910390fd5b6004600085815260200190815260200160002060405180608001604052803373ffffffffffffffffffffffffffffffffffffffff1681526020018681526020018560ff16815260200184815250908060018154018082558091505060019003906000526020600020906004020160009091909190915060008201518160000160006101000a81548173ffffffffffffffffffffffffffffffffffffffff021916908373ffffffffffffffffffffffffffffffffffffffff1602179055506020820151816001015560408201518160020160006101000a81548160ff021916908360ff16021790555060608201518160030190816105d69190612d49565b50505050505050565b6000808154809291906105f190612a89565b91905055506040518060e0016040528060005481526020013373ffffffffffffffffffffffffffffffffffffffff1681526020018681526020018581526020018481526020018381526020018281525060026000805481526020019081526020016000206000820151816000015560208201518160010160006101000a81548173ffffffffffffffffffffffffffffffffffffffff021916908373ffffffffffffffffffffffffffffffffffffffff16021790555060408201518160020190816106bb9190612d49565b5060608201518160030190816106d19190612d49565b5060808201518160040190816106e79190612d49565b5060a0820151816005015560c082015181600601908051906020019061070e929190611c06565b509050507ffccfab3757a37767d03b5ffd499faaa9faf5a6d33900ee43e310e77bce34940b600054338760405161074793929190612e1b565b60405180910390a15050505050565b60005481565b6000600360008381526020019081526020016000206040518060a0016040529081600082015481526020016001820160009054906101000a900473ffffffffffffffffffffffffffffffffffffffff1673ffffffffffffffffffffffffffffffffffffffff1673ffffffffffffffffffffffffffffffffffffffff168152602001600282015481526020016003820154815260200160048201548152505090506000816000015103610843576040517f08c379a000000000000000000000000000000000000000000000000000000000815260040161083a90612ea5565b60405180910390fd5b3373ffffffffffffffffffffffffffffffffffffffff16816020015173ffffffffffffffffffffffffffffffffffffffff16146108b5576040517f08c379a00000000000000000000000000000000000000000000000000000000081526004016108ac90612f11565b60405180910390fd5b600360008381526020019081526020016000206000808201600090556001820160006101000a81549073ffffffffffffffffffffffffffffffffffffffff021916905560028201600090556003820160009055600482016000905550505050565b60606000805467ffffffffffffffff81111561093557610934611f07565b5b60405190808252806020026020018201604052801561096e57816020015b61095b611c5f565b8152602001906001900390816109535790505b5090506000600190505b6000548111610cd557600260008281526020019081526020016000206040518060e0016040529081600082015481526020016001820160009054906101000a900473ffffffffffffffffffffffffffffffffffffffff1673ffffffffffffffffffffffffffffffffffffffff1673ffffffffffffffffffffffffffffffffffffffff168152602001600282018054610a0f90612b6c565b80601f0160208091040260200160405190810160405280929190818152602001828054610a3b90612b6c565b8015610a885780601f10610a5d57610100808354040283529160200191610a88565b820191906000526020600020905b815481529060010190602001808311610a6b57829003601f168201915b50505050508152602001600382018054610aa190612b6c565b80601f0160208091040260200160405190810160405280929190818152602001828054610acd90612b6c565b8015610b1a5780601f10610aef57610100808354040283529160200191610b1a565b820191906000526020600020905b815481529060010190602001808311610afd57829003601f168201915b50505050508152602001600482018054610b3390612b6c565b80601f0160208091040260200160405190810160405280929190818152602001828054610b5f90612b6c565b8015610bac5780601f10610b8157610100808354040283529160200191610bac565b820191906000526020600020905b815481529060010190602001808311610b8f57829003601f168201915b505050505081526020016005820154815260200160068201805480602002602001604051908101604052809291908181526020016000905b82821015610c90578382906000526020600020018054610c0390612b6c565b80601f0160208091040260200160405190810160405280929190818152602001828054610c2f90612b6c565b8015610c7c5780601f10610c5157610100808354040283529160200191610c7c565b820191906000526020600020905b815481529060010190602001808311610c5f57829003601f168201915b505050505081526020019060010190610be4565b505050508152505082600183610ca69190612f31565b81518110610cb757610cb6612f65565b5b60200260200101819052508080610ccd90612a89565b915050610978565b508091505090565b60046020528160005260406000208181548110610cf957600080fd5b9060005260206000209060040201600091509150508060000160009054906101000a900473ffffffffffffffffffffffffffffffffffffffff16908060010154908060020160009054906101000a900460ff1690806003018054610d5c90612b6c565b80601f0160208091040260200160405190810160405280929190818152602001828054610d8890612b6c565b8015610dd55780601f10610daa57610100808354040283529160200191610dd5565b820191906000526020600020905b815481529060010190602001808311610db857829003601f168201915b5050505050905084565b6000600260008581526020019081526020016000206040518060e0016040529081600082015481526020016001820160009054906101000a900473ffffffffffffffffffffffffffffffffffffffff1673ffffffffffffffffffffffffffffffffffffffff1673ffffffffffffffffffffffffffffffffffffffff168152602001600282018054610e6f90612b6c565b80601f0160208091040260200160405190810160405280929190818152602001828054610e9b90612b6c565b8015610ee85780601f10610ebd57610100808354040283529160200191610ee8565b820191906000526020600020905b815481529060010190602001808311610ecb57829003601f168201915b50505050508152602001600382018054610f0190612b6c565b80601f0160208091040260200160405190810160405280929190818152602001828054610f2d90612b6c565b8015610f7a5780601f10610f4f57610100808354040283529160200191610f7a565b820191906000526020600020905b815481529060010190602001808311610f5d57829003601f168201915b50505050508152602001600482018054610f9390612b6c565b80601f0160208091040260200160405190810160405280929190818152602001828054610fbf90612b6c565b801561100c5780601f10610fe15761010080835404028352916020019161100c565b820191906000526020600020905b815481529060010190602001808311610fef57829003601f168201915b505050505081526020016005820154815260200160068201805480602002602001604051908101604052809291908181526020016000905b828210156110f057838290600052602060002001805461106390612b6c565b80601f016020809104026020016040519081016040528092919081815260200182805461108f90612b6c565b80156110dc5780601f106110b1576101008083540402835291602001916110dc565b820191906000526020600020905b8154815290600101906020018083116110bf57829003601f168201915b505050505081526020019060010190611044565b50505050815250509050600073ffffffffffffffffffffffffffffffffffffffff16816020015173ffffffffffffffffffffffffffffffffffffffff160361116d576040517f08c379a000000000000000000000000000000000000000000000000000000000815260040161116490612fe0565b60405180910390fd5b8060a001513410156111b4576040517f08c379a00000000000000000000000000000000000000000000000000000000081526004016111ab9061304c565b60405180910390fd5b600160008154809291906111c790612a89565b91905055506040518060a0016040528060015481526020013373ffffffffffffffffffffffffffffffffffffffff168152602001858152602001848152602001838152506003600060015481526020019081526020016000206000820151816000015560208201518160010160006101000a81548173ffffffffffffffffffffffffffffffffffffffff021916908373ffffffffffffffffffffffffffffffffffffffff160217905550604082015181600201556060820151816003015560808201518160040155905050806020015173ffffffffffffffffffffffffffffffffffffffff166108fc349081150290604051600060405180830381858888f193505050501580156112dc573d6000803e3d6000fd5b507f1454e9ce257a8f02d1dcfcab9cf23320507f1597a918e65c2ab9e457f9acb2cc60015433866040516113129392919061306c565b60405180910390a150505050565b60026020528060005260406000206000915090508060000154908060010160009054906101000a900473ffffffffffffffffffffffffffffffffffffffff169080600201805461136f90612b6c565b80601f016020809104026020016040519081016040528092919081815260200182805461139b90612b6c565b80156113e85780601f106113bd576101008083540402835291602001916113e8565b820191906000526020600020905b8154815290600101906020018083116113cb57829003601f168201915b5050505050908060030180546113fd90612b6c565b80601f016020809104026020016040519081016040528092919081815260200182805461142990612b6c565b80156114765780601f1061144b57610100808354040283529160200191611476565b820191906000526020600020905b81548152906001019060200180831161145957829003601f168201915b50505050509080600401805461148b90612b6c565b80601f01602080910402602001604051908101604052809291908181526020018280546114b790612b6c565b80156115045780601f106114d957610100808354040283529160200191611504565b820191906000526020600020905b8154815290600101906020018083116114e757829003601f168201915b5050505050908060050154905086565b6000600260008381526020019081526020016000206040518060e0016040529081600082015481526020016001820160009054906101000a900473ffffffffffffffffffffffffffffffffffffffff1673ffffffffffffffffffffffffffffffffffffffff1673ffffffffffffffffffffffffffffffffffffffff1681526020016002820180546115a490612b6c565b80601f01602080910402602001604051908101604052809291908181526020018280546115d090612b6c565b801561161d5780601f106115f25761010080835404028352916020019161161d565b820191906000526020600020905b81548152906001019060200180831161160057829003601f168201915b5050505050815260200160038201805461163690612b6c565b80601f016020809104026020016040519081016040528092919081815260200182805461166290612b6c565b80156116af5780601f10611684576101008083540402835291602001916116af565b820191906000526020600020905b81548152906001019060200180831161169257829003601f168201915b505050505081526020016004820180546116c890612b6c565b80601f01602080910402602001604051908101604052809291908181526020018280546116f490612b6c565b80156117415780601f1061171657610100808354040283529160200191611741565b820191906000526020600020905b81548152906001019060200180831161172457829003601f168201915b505050505081526020016005820154815260200160068201805480602002602001604051908101604052809291908181526020016000905b8282101561182557838290600052602060002001805461179890612b6c565b80601f01602080910402602001604051908101604052809291908181526020018280546117c490612b6c565b80156118115780601f106117e657610100808354040283529160200191611811565b820191906000526020600020905b8154815290600101906020018083116117f457829003601f168201915b505050505081526020019060010190611779565b505050508152505090503373ffffffffffffffffffffffffffffffffffffffff16816020015173ffffffffffffffffffffffffffffffffffffffff16146118a1576040517f08c379a0000000000000000000000000000000000000000000000000000000008152600401611898906130ef565b60405180910390fd5b600260008381526020019081526020016000206000808201600090556001820160006101000a81549073ffffffffffffffffffffffffffffffffffffffff02191690556002820160006118f49190611cb2565b6003820160006119049190611cb2565b6004820160006119149190611cb2565b600582016000905560068201600061192c9190611cf2565b50505050565b60015481565b606060046000838152602001908152602001600020805480602002602001604051908101604052809291908181526020016000905b82821015611aae57838290600052602060002090600402016040518060800160405290816000820160009054906101000a900473ffffffffffffffffffffffffffffffffffffffff1673ffffffffffffffffffffffffffffffffffffffff1673ffffffffffffffffffffffffffffffffffffffff168152602001600182015481526020016002820160009054906101000a900460ff1660ff1660ff168152602001600382018054611a1d90612b6c565b80601f0160208091040260200160405190810160405280929190818152602001828054611a4990612b6c565b8015611a965780601f10611a6b57610100808354040283529160200191611a96565b820191906000526020600020905b815481529060010190602001808311611a7957829003601f168201915b5050505050815250508152602001906001019061196d565b505050509050919050565b6060600060015467ffffffffffffffff811115611ad957611ad8611f07565b5b604051908082528060200260200182016040528015611b1257816020015b611aff611d13565b815260200190600190039081611af75790505b5090506000600190505b6001548111611bfe57600360008281526020019081526020016000206040518060a0016040529081600082015481526020016001820160009054906101000a900473ffffffffffffffffffffffffffffffffffffffff1673ffffffffffffffffffffffffffffffffffffffff1673ffffffffffffffffffffffffffffffffffffffff168152602001600282015481526020016003820154815260200160048201548152505082600183611bcf9190612f31565b81518110611be057611bdf612f65565b5b60200260200101819052508080611bf690612a89565b915050611b1c565b508091505090565b828054828255906000526020600020908101928215611c4e579160200282015b82811115611c4d578251829081611c3d9190612d49565b5091602001919060010190611c26565b5b509050611c5b9190611d58565b5090565b6040518060e0016040528060008152602001600073ffffffffffffffffffffffffffffffffffffffff16815260200160608152602001606081526020016060815260200160008152602001606081525090565b508054611cbe90612b6c565b6000825580601f10611cd05750611cef565b601f016020900490600052602060002090810190611cee9190611d7c565b5b50565b5080546000825590600052602060002090810190611d109190611d58565b50565b6040518060a0016040528060008152602001600073ffffffffffffffffffffffffffffffffffffffff1681526020016000815260200160008152602001600081525090565b5b80821115611d785760008181611d6f9190611cb2565b50600101611d59565b5090565b5b80821115611d95576000816000905550600101611d7d565b5090565b6000604051905090565b600080fd5b600080fd5b6000819050919050565b611dc081611dad565b8114611dcb57600080fd5b50565b600081359050611ddd81611db7565b92915050565b600060208284031215611df957611df8611da3565b5b6000611e0784828501611dce565b91505092915050565b611e1981611dad565b82525050565b600073ffffffffffffffffffffffffffffffffffffffff82169050919050565b6000611e4a82611e1f565b9050919050565b611e5a81611e3f565b82525050565b600060a082019050611e756000830188611e10565b611e826020830187611e51565b611e8f6040830186611e10565b611e9c6060830185611e10565b611ea96080830184611e10565b9695505050505050565b600060ff82169050919050565b611ec981611eb3565b8114611ed457600080fd5b50565b600081359050611ee681611ec0565b92915050565b600080fd5b600080fd5b6000601f19601f8301169050919050565b7f4e487b7100000000000000000000000000000000000000000000000000000000600052604160045260246000fd5b611f3f82611ef6565b810181811067ffffffffffffffff82111715611f5e57611f5d611f07565b5b80604052505050565b6000611f71611d99565b9050611f7d8282611f36565b919050565b600067ffffffffffffffff821115611f9d57611f9c611f07565b5b611fa682611ef6565b9050602081019050919050565b82818337600083830152505050565b6000611fd5611fd084611f82565b611f67565b905082815260208101848484011115611ff157611ff0611ef1565b5b611ffc848285611fb3565b509392505050565b600082601f83011261201957612018611eec565b5b8135612029848260208601611fc2565b91505092915050565b60008060006060848603121561204b5761204a611da3565b5b600061205986828701611dce565b935050602061206a86828701611ed7565b925050604084013567ffffffffffffffff81111561208b5761208a611da8565b5b61209786828701612004565b9150509250925092565b600067ffffffffffffffff8211156120bc576120bb611f07565b5b602082029050602081019050919050565b600080fd5b60006120e56120e0846120a1565b611f67565b90508083825260208201905060208402830185811115612108576121076120cd565b5b835b8181101561214f57803567ffffffffffffffff81111561212d5761212c611eec565b5b80860161213a8982612004565b8552602085019450505060208101905061210a565b5050509392505050565b600082601f83011261216e5761216d611eec565b5b813561217e8482602086016120d2565b91505092915050565b600080600080600060a086880312156121a3576121a2611da3565b5b600086013567ffffffffffffffff8111156121c1576121c0611da8565b5b6121cd88828901612004565b955050602086013567ffffffffffffffff8111156121ee576121ed611da8565b5b6121fa88828901612004565b945050604086013567ffffffffffffffff81111561221b5761221a611da8565b5b61222788828901612004565b935050606061223888828901611dce565b925050608086013567ffffffffffffffff81111561225957612258611da8565b5b61226588828901612159565b9150509295509295909350565b60006020820190506122876000830184611e10565b92915050565b600081519050919050565b600082825260208201905092915050565b6000819050602082019050919050565b6122c281611dad565b82525050565b60006122d382611e1f565b9050919050565b6122e3816122c8565b82525050565b600081519050919050565b600082825260208201905092915050565b60005b83811015612323578082015181840152602081019050612308565b60008484015250505050565b600061233a826122e9565b61234481856122f4565b9350612354818560208601612305565b61235d81611ef6565b840191505092915050565b600081519050919050565b600082825260208201905092915050565b6000819050602082019050919050565b60006123a0838361232f565b905092915050565b6000602082019050919050565b60006123c082612368565b6123ca8185612373565b9350836020820285016123dc85612384565b8060005b8581101561241857848403895281516123f98582612394565b9450612404836123a8565b925060208a019950506001810190506123e0565b50829750879550505050505092915050565b600060e08301600083015161244260008601826122b9565b50602083015161245560208601826122da565b506040830151848203604086015261246d828261232f565b91505060608301518482036060860152612487828261232f565b915050608083015184820360808601526124a1828261232f565b91505060a08301516124b660a08601826122b9565b5060c083015184820360c08601526124ce82826123b5565b9150508091505092915050565b60006124e7838361242a565b905092915050565b6000602082019050919050565b60006125078261228d565b6125118185612298565b935083602082028501612523856122a9565b8060005b8581101561255f578484038952815161254085826124db565b945061254b836124ef565b925060208a01995050600181019050612527565b50829750879550505050505092915050565b6000602082019050818103600083015261258b81846124fc565b905092915050565b600080604083850312156125aa576125a9611da3565b5b60006125b885828601611dce565b92505060206125c985828601611dce565b9150509250929050565b6125dc81611eb3565b82525050565b600082825260208201905092915050565b60006125fe826122e9565b61260881856125e2565b9350612618818560208601612305565b61262181611ef6565b840191505092915050565b60006080820190506126416000830187611e51565b61264e6020830186611e10565b61265b60408301856125d3565b818103606083015261266d81846125f3565b905095945050505050565b60008060006060848603121561269157612690611da3565b5b600061269f86828701611dce565b93505060206126b086828701611dce565b92505060406126c186828701611dce565b9150509250925092565b6126d4816122c8565b82525050565b600060c0820190506126ef6000830189611e10565b6126fc60208301886126cb565b818103604083015261270e81876125f3565b9050818103606083015261272281866125f3565b9050818103608083015261273681856125f3565b905061274560a0830184611e10565b979650505050505050565b600081519050919050565b600082825260208201905092915050565b6000819050602082019050919050565b61278581611e3f565b82525050565b61279481611eb3565b82525050565b60006080830160008301516127b2600086018261277c565b5060208301516127c560208601826122b9565b5060408301516127d8604086018261278b565b50606083015184820360608601526127f0828261232f565b9150508091505092915050565b6000612809838361279a565b905092915050565b6000602082019050919050565b600061282982612750565b612833818561275b565b9350836020820285016128458561276c565b8060005b85811015612881578484038952815161286285826127fd565b945061286d83612811565b925060208a01995050600181019050612849565b50829750879550505050505092915050565b600060208201905081810360008301526128ad818461281e565b905092915050565b600081519050919050565b600082825260208201905092915050565b6000819050602082019050919050565b60a0820160008201516128f760008501826122b9565b50602082015161290a602085018261277c565b50604082015161291d60408501826122b9565b50606082015161293060608501826122b9565b50608082015161294360808501826122b9565b50505050565b600061295583836128e1565b60a08301905092915050565b6000602082019050919050565b6000612979826128b5565b61298381856128c0565b935061298e836128d1565b8060005b838110156129bf5781516129a68882612949565b97506129b183612961565b925050600181019050612992565b5085935050505092915050565b600060208201905081810360008301526129e6818461296e565b905092915050565b7f526174696e67206d6f7261206269746920312d35000000000000000000000000600082015250565b6000612a246014836125e2565b9150612a2f826129ee565b602082019050919050565b60006020820190508181036000830152612a5381612a17565b9050919050565b7f4e487b7100000000000000000000000000000000000000000000000000000000600052601160045260246000fd5b6000612a9482611dad565b91507fffffffffffffffffffffffffffffffffffffffffffffffffffffffffffffffff8203612ac657612ac5612a5a565b5b600182019050919050565b7f4e697374652072657a6572766972616c69206f76616a206f626a656b742e0000600082015250565b6000612b07601e836125e2565b9150612b1282612ad1565b602082019050919050565b60006020820190508181036000830152612b3681612afa565b9050919050565b7f4e487b7100000000000000000000000000000000000000000000000000000000600052602260045260246000fd5b60006002820490506001821680612b8457607f821691505b602082108103612b9757612b96612b3d565b5b50919050565b60008190508160005260206000209050919050565b60006020601f8301049050919050565b600082821b905092915050565b600060088302612bff7fffffffffffffffffffffffffffffffffffffffffffffffffffffffffffffffff82612bc2565b612c098683612bc2565b95508019841693508086168417925050509392505050565b6000819050919050565b6000612c46612c41612c3c84611dad565b612c21565b611dad565b9050919050565b6000819050919050565b612c6083612c2b565b612c74612c6c82612c4d565b848454612bcf565b825550505050565b600090565b612c89612c7c565b612c94818484612c57565b505050565b5b81811015612cb857612cad600082612c81565b600181019050612c9a565b5050565b601f821115612cfd57612cce81612b9d565b612cd784612bb2565b81016020851015612ce6578190505b612cfa612cf285612bb2565b830182612c99565b50505b505050565b600082821c905092915050565b6000612d2060001984600802612d02565b1980831691505092915050565b6000612d398383612d0f565b9150826002028217905092915050565b612d52826122e9565b67ffffffffffffffff811115612d6b57612d6a611f07565b5b612d758254612b6c565b612d80828285612cbc565b600060209050601f831160018114612db35760008415612da1578287015190505b612dab8582612d2d565b865550612e13565b601f198416612dc186612b9d565b60005b82811015612de957848901518255600182019150602085019450602081019050612dc4565b86831015612e065784890151612e02601f891682612d0f565b8355505b6001600288020188555050505b505050505050565b6000606082019050612e306000830186611e10565b612e3d6020830185611e51565b8181036040830152612e4f81846125f3565b9050949350505050565b7f52657a6572766163696a61206e6520706f73746f6a692e000000000000000000600082015250565b6000612e8f6017836125e2565b9150612e9a82612e59565b602082019050919050565b60006020820190508181036000830152612ebe81612e82565b9050919050565b7f4e6973746520766c61736e696b2072657a6572766163696a652e000000000000600082015250565b6000612efb601a836125e2565b9150612f0682612ec5565b602082019050919050565b60006020820190508181036000830152612f2a81612eee565b9050919050565b6000612f3c82611dad565b9150612f4783611dad565b9250828203905081811115612f5f57612f5e612a5a565b5b92915050565b7f4e487b7100000000000000000000000000000000000000000000000000000000600052603260045260246000fd5b7f4c697374696e6720646f6573206e6f742065786973742e000000000000000000600082015250565b6000612fca6017836125e2565b9150612fd582612f94565b602082019050919050565b60006020820190508181036000830152612ff981612fbd565b9050919050565b7f4e6f7420656e6f756768204554482073656e742e000000000000000000000000600082015250565b60006130366014836125e2565b915061304182613000565b602082019050919050565b6000602082019050818103600083015261306581613029565b9050919050565b60006060820190506130816000830186611e10565b61308e6020830185611e51565b61309b6040830184611e10565b949350505050565b7f4e6973746520766c61736e696b206f676c6173612e0000000000000000000000600082015250565b60006130d96015836125e2565b91506130e4826130a3565b602082019050919050565b60006020820190508181036000830152613108816130cc565b905091905056fea2646970667358221220d2f520a771151515b08766336fc8b95c01a6158f82a5ac84c41c01dc70b7315c64736f6c63430008120033",
  "linkReferences": {},
  "deployedLinkReferences": {}
}