{
  "_format": "hh-sol-artifact-1",
  "contractName": "mStay",
  "sourceName": "contracts/mStay.sol",
  "abi": [
    {
      "anonymous": false,
      "inputs": [
        {
          "indexed": false,
          "internalType": "uint256",
          "name": "id",
          "type": "uint256"
        },
        {
          "indexed": false,
          "internalType": "address",
          "name": "owner",
          "type": "address"
        },
        {
          "indexed": false,
          "internalType": "string",
          "name": "title",
          "type": "string"
        }
      ],
      "name": "ListingCreated",
      "type": "event"
    },
    {
      "anonymous": false,
      "inputs": [
        {
          "indexed": false,
          "internalType": "uint256",
          "name": "id",
          "type": "uint256"
        },
        {
          "indexed": false,
          "internalType": "address",
          "name": "guest",
          "type": "address"
        },
        {
          "indexed": false,
          "internalType": "uint256",
          "name": "listingId",
          "type": "uint256"
        }
      ],
      "name": "ReservationMade",
      "type": "event"
    },
    {
      "inputs": [
        {
          "internalType": "uint256",
          "name": "_reservationId",
          "type": "uint256"
        }
      ],
      "name": "cancelReservation",
      "outputs": [],
      "stateMutability": "nonpayable",
      "type": "function"
    },
    {
      "inputs": [
        {
          "internalType": "string",
          "name": "_title",
          "type": "string"
        },
        {
          "internalType": "string",
          "name": "_location",
          "type": "string"
        },
        {
          "internalType": "string",
          "name": "_description",
          "type": "string"
        },
        {
          "internalType": "uint256",
          "name": "_pricePerNight",
          "type": "uint256"
        },
        {
          "internalType": "string[]",
          "name": "_images",
          "type": "string[]"
        }
      ],
      "name": "createListing",
      "outputs": [],
      "stateMutability": "nonpayable",
      "type": "function"
    },
    {
      "inputs": [
        {
          "internalType": "uint256",
          "name": "_listingId",
          "type": "uint256"
        }
      ],
      "name": "deleteListing",
      "outputs": [],
      "stateMutability": "nonpayable",
      "type": "function"
    },
    {
      "inputs": [],
      "name": "getAllListings",
      "outputs": [
        {
          "components": [
            {
              "internalType": "uint256",
              "name": "id",
              "type": "uint256"
            },
            {
              "internalType": "address payable",
              "name": "owner",
              "type": "address"
            },
            {
              "internalType": "string",
              "name": "title",
              "type": "string"
            },
            {
              "internalType": "string",
              "name": "location",
              "type": "string"
            },
            {
              "internalType": "string",
              "name": "description",
              "type": "string"
            },
            {
              "internalType": "uint256",
              "name": "pricePerNight",
              "type": "uint256"
            },
            {
              "internalType": "string[]",
              "name": "images",
              "type": "string[]"
            }
          ],
          "internalType": "struct mStay.Listing[]",
          "name": "",
          "type": "tuple[]"
        }
      ],
      "stateMutability": "view",
      "type": "function"
    },
    {
      "inputs": [],
      "name": "getAllReservations",
      "outputs": [
        {
          "components": [
            {
              "internalType": "uint256",
              "name": "id",
              "type": "uint256"
            },
            {
              "internalType": "address",
              "name": "guest",
              "type": "address"
            },
            {
              "internalType": "uint256",
              "name": "listingId",
              "type": "uint256"
            },
            {
              "internalType": "uint256",
              "name": "checkInDate",
              "type": "uint256"
            },
            {
              "internalType": "uint256",
              "name": "checkOutDate",
              "type": "uint256"
            }
          ],
          "internalType": "struct mStay.Reservation[]",
          "name": "",
          "type": "tuple[]"
        }
      ],
      "stateMutability": "view",
      "type": "function"
    },
    {
      "inputs": [],
      "name": "listingCount",
      "outputs": [
        {
          "internalType": "uint256",
          "name": "",
          "type": "uint256"
        }
      ],
      "stateMutability": "view",
      "type": "function"
    },
    {
      "inputs": [
        {
          "internalType": "uint256",
          "name": "",
          "type": "uint256"
        }
      ],
      "name": "listings",
      "outputs": [
        {
          "internalType": "uint256",
          "name": "id",
          "type": "uint256"
        },
        {
          "internalType": "address payable",
          "name": "owner",
          "type": "address"
        },
        {
          "internalType": "string",
          "name": "title",
          "type": "string"
        },
        {
          "internalType": "string",
          "name": "location",
          "type": "string"
        },
        {
          "internalType": "string",
          "name": "description",
          "type": "string"
        },
        {
          "internalType": "uint256",
          "name": "pricePerNight",
          "type": "uint256"
        }
      ],
      "stateMutability": "view",
      "type": "function"
    },
    {
      "inputs": [
        {
          "internalType": "uint256",
          "name": "_listingId",
          "type": "uint256"
        },
        {
          "internalType": "uint256",
          "name": "_checkInDate",
          "type": "uint256"
        },
        {
          "internalType": "uint256",
          "name": "_checkOutDate",
          "type": "uint256"
        }
      ],
      "name": "makeReservation",
      "outputs": [],
      "stateMutability": "payable",
      "type": "function"
    },
    {
      "inputs": [],
      "name": "reservationCount",
      "outputs": [
        {
          "internalType": "uint256",
          "name": "",
          "type": "uint256"
        }
      ],
      "stateMutability": "view",
      "type": "function"
    },
    {
      "inputs": [
        {
          "internalType": "uint256",
          "name": "",
          "type": "uint256"
        }
      ],
      "name": "reservations",
      "outputs": [
        {
          "internalType": "uint256",
          "name": "id",
          "type": "uint256"
        },
        {
          "internalType": "address",
          "name": "guest",
          "type": "address"
        },
        {
          "internalType": "uint256",
          "name": "listingId",
          "type": "uint256"
        },
        {
          "internalType": "uint256",
          "name": "checkInDate",
          "type": "uint256"
        },
        {
          "internalType": "uint256",
          "name": "checkOutDate",
          "type": "uint256"
        }
      ],
      "stateMutability": "view",
      "type": "function"
    }
  ],
  "bytecode": "0x608060405234801561001057600080fd5b50612824806100206000396000f3fe6080604052600436106100915760003560e01c8063de06e7a611610059578063de06e7a61461017f578063de74e57b1461019b578063e6282c6e146101dd578063e84f756e14610206578063fbc628331461023157610091565b8063067cf83214610096578063507014c7146100d7578063a9b07c2614610100578063ae5e6cf41461012b578063ae73ccec14610154575b600080fd5b3480156100a257600080fd5b506100bd60048036038101906100b89190611833565b61025c565b6040516100ce9594939291906118b0565b60405180910390f35b3480156100e357600080fd5b506100fe60048036038101906100f99190611b2f565b6102b2565b005b34801561010c57600080fd5b50610115610429565b6040516101229190611c1a565b60405180910390f35b34801561013757600080fd5b50610152600480360381019061014d9190611833565b61042f565b005b34801561016057600080fd5b506101696105e9565b6040516101769190611f19565b60405180910390f35b61019960048036038101906101949190611f3b565b6109b0565b005b3480156101a757600080fd5b506101c260048036038101906101bd9190611833565b610ef1565b6040516101d496959493929190611fe7565b60405180910390f35b3480156101e957600080fd5b5061020460048036038101906101ff9190611833565b6110e5565b005b34801561021257600080fd5b5061021b611503565b6040516102289190611c1a565b60405180910390f35b34801561023d57600080fd5b50610246611509565b6040516102539190612183565b60405180910390f35b60036020528060005260406000206000915090508060000154908060010160009054906101000a900473ffffffffffffffffffffffffffffffffffffffff16908060020154908060030154908060040154905085565b6000808154809291906102c4906121d4565b91905055506040518060e0016040528060005481526020013373ffffffffffffffffffffffffffffffffffffffff1681526020018681526020018581526020018481526020018381526020018281525060026000805481526020019081526020016000206000820151816000015560208201518160010160006101000a81548173ffffffffffffffffffffffffffffffffffffffff021916908373ffffffffffffffffffffffffffffffffffffffff160217905550604082015181600201908161038e9190612428565b5060608201518160030190816103a49190612428565b5060808201518160040190816103ba9190612428565b5060a0820151816005015560c08201518160060190805190602001906103e1929190611656565b509050507ffccfab3757a37767d03b5ffd499faaa9faf5a6d33900ee43e310e77bce34940b600054338760405161041a939291906124fa565b60405180910390a15050505050565b60005481565b6000600360008381526020019081526020016000206040518060a0016040529081600082015481526020016001820160009054906101000a900473ffffffffffffffffffffffffffffffffffffffff1673ffffffffffffffffffffffffffffffffffffffff1673ffffffffffffffffffffffffffffffffffffffff168152602001600282015481526020016003820154815260200160048201548152505090506000816000015103610516576040517f08c379a000000000000000000000000000000000000000000000000000000000815260040161050d90612584565b60405180910390fd5b3373ffffffffffffffffffffffffffffffffffffffff16816020015173ffffffffffffffffffffffffffffffffffffffff1614610588576040517f08c379a000000000000000000000000000000000000000000000000000000000815260040161057f906125f0565b60405180910390fd5b600360008381526020019081526020016000206000808201600090556001820160006101000a81549073ffffffffffffffffffffffffffffffffffffffff021916905560028201600090556003820160009055600482016000905550505050565b60606000805467ffffffffffffffff8111156106085761060761191e565b5b60405190808252806020026020018201604052801561064157816020015b61062e6116af565b8152602001906001900390816106265790505b5090506000600190505b60005481116109a857600260008281526020019081526020016000206040518060e0016040529081600082015481526020016001820160009054906101000a900473ffffffffffffffffffffffffffffffffffffffff1673ffffffffffffffffffffffffffffffffffffffff1673ffffffffffffffffffffffffffffffffffffffff1681526020016002820180546106e29061224b565b80601f016020809104026020016040519081016040528092919081815260200182805461070e9061224b565b801561075b5780601f106107305761010080835404028352916020019161075b565b820191906000526020600020905b81548152906001019060200180831161073e57829003601f168201915b505050505081526020016003820180546107749061224b565b80601f01602080910402602001604051908101604052809291908181526020018280546107a09061224b565b80156107ed5780601f106107c2576101008083540402835291602001916107ed565b820191906000526020600020905b8154815290600101906020018083116107d057829003601f168201915b505050505081526020016004820180546108069061224b565b80601f01602080910402602001604051908101604052809291908181526020018280546108329061224b565b801561087f5780601f106108545761010080835404028352916020019161087f565b820191906000526020600020905b81548152906001019060200180831161086257829003601f168201915b505050505081526020016005820154815260200160068201805480602002602001604051908101604052809291908181526020016000905b828210156109635783829060005260206000200180546108d69061224b565b80601f01602080910402602001604051908101604052809291908181526020018280546109029061224b565b801561094f5780601f106109245761010080835404028352916020019161094f565b820191906000526020600020905b81548152906001019060200180831161093257829003601f168201915b5050505050815260200190600101906108b7565b5050505081525050826001836109799190612610565b8151811061098a57610989612644565b5b602002602001018190525080806109a0906121d4565b91505061064b565b508091505090565b6000600260008581526020019081526020016000206040518060e0016040529081600082015481526020016001820160009054906101000a900473ffffffffffffffffffffffffffffffffffffffff1673ffffffffffffffffffffffffffffffffffffffff1673ffffffffffffffffffffffffffffffffffffffff168152602001600282018054610a409061224b565b80601f0160208091040260200160405190810160405280929190818152602001828054610a6c9061224b565b8015610ab95780601f10610a8e57610100808354040283529160200191610ab9565b820191906000526020600020905b815481529060010190602001808311610a9c57829003601f168201915b50505050508152602001600382018054610ad29061224b565b80601f0160208091040260200160405190810160405280929190818152602001828054610afe9061224b565b8015610b4b5780601f10610b2057610100808354040283529160200191610b4b565b820191906000526020600020905b815481529060010190602001808311610b2e57829003601f168201915b50505050508152602001600482018054610b649061224b565b80601f0160208091040260200160405190810160405280929190818152602001828054610b909061224b565b8015610bdd5780601f10610bb257610100808354040283529160200191610bdd565b820191906000526020600020905b815481529060010190602001808311610bc057829003601f168201915b505050505081526020016005820154815260200160068201805480602002602001604051908101604052809291908181526020016000905b82821015610cc1578382906000526020600020018054610c349061224b565b80601f0160208091040260200160405190810160405280929190818152602001828054610c609061224b565b8015610cad5780601f10610c8257610100808354040283529160200191610cad565b820191906000526020600020905b815481529060010190602001808311610c9057829003601f168201915b505050505081526020019060010190610c15565b50505050815250509050600073ffffffffffffffffffffffffffffffffffffffff16816020015173ffffffffffffffffffffffffffffffffffffffff1603610d3e576040517f08c379a0000000000000000000000000000000000000000000000000000000008152600401610d35906126bf565b60405180910390fd5b8060a00151341015610d85576040517f08c379a0000000000000000000000000000000000000000000000000000000008152600401610d7c9061272b565b60405180910390fd5b60016000815480929190610d98906121d4565b91905055506040518060a0016040528060015481526020013373ffffffffffffffffffffffffffffffffffffffff168152602001858152602001848152602001838152506003600060015481526020019081526020016000206000820151816000015560208201518160010160006101000a81548173ffffffffffffffffffffffffffffffffffffffff021916908373ffffffffffffffffffffffffffffffffffffffff160217905550604082015181600201556060820151816003015560808201518160040155905050806020015173ffffffffffffffffffffffffffffffffffffffff166108fc349081150290604051600060405180830381858888f19350505050158015610ead573d6000803e3d6000fd5b507f1454e9ce257a8f02d1dcfcab9cf23320507f1597a918e65c2ab9e457f9acb2cc6001543386604051610ee39392919061274b565b60405180910390a150505050565b60026020528060005260406000206000915090508060000154908060010160009054906101000a900473ffffffffffffffffffffffffffffffffffffffff1690806002018054610f409061224b565b80601f0160208091040260200160405190810160405280929190818152602001828054610f6c9061224b565b8015610fb95780601f10610f8e57610100808354040283529160200191610fb9565b820191906000526020600020905b815481529060010190602001808311610f9c57829003601f168201915b505050505090806003018054610fce9061224b565b80601f0160208091040260200160405190810160405280929190818152602001828054610ffa9061224b565b80156110475780601f1061101c57610100808354040283529160200191611047565b820191906000526020600020905b81548152906001019060200180831161102a57829003601f168201915b50505050509080600401805461105c9061224b565b80601f01602080910402602001604051908101604052809291908181526020018280546110889061224b565b80156110d55780601f106110aa576101008083540402835291602001916110d5565b820191906000526020600020905b8154815290600101906020018083116110b857829003601f168201915b5050505050908060050154905086565b6000600260008381526020019081526020016000206040518060e0016040529081600082015481526020016001820160009054906101000a900473ffffffffffffffffffffffffffffffffffffffff1673ffffffffffffffffffffffffffffffffffffffff1673ffffffffffffffffffffffffffffffffffffffff1681526020016002820180546111759061224b565b80601f01602080910402602001604051908101604052809291908181526020018280546111a19061224b565b80156111ee5780601f106111c3576101008083540402835291602001916111ee565b820191906000526020600020905b8154815290600101906020018083116111d157829003601f168201915b505050505081526020016003820180546112079061224b565b80601f01602080910402602001604051908101604052809291908181526020018280546112339061224b565b80156112805780601f1061125557610100808354040283529160200191611280565b820191906000526020600020905b81548152906001019060200180831161126357829003601f168201915b505050505081526020016004820180546112999061224b565b80601f01602080910402602001604051908101604052809291908181526020018280546112c59061224b565b80156113125780601f106112e757610100808354040283529160200191611312565b820191906000526020600020905b8154815290600101906020018083116112f557829003601f168201915b505050505081526020016005820154815260200160068201805480602002602001604051908101604052809291908181526020016000905b828210156113f65783829060005260206000200180546113699061224b565b80601f01602080910402602001604051908101604052809291908181526020018280546113959061224b565b80156113e25780601f106113b7576101008083540402835291602001916113e2565b820191906000526020600020905b8154815290600101906020018083116113c557829003601f168201915b50505050508152602001906001019061134a565b505050508152505090503373ffffffffffffffffffffffffffffffffffffffff16816020015173ffffffffffffffffffffffffffffffffffffffff1614611472576040517f08c379a0000000000000000000000000000000000000000000000000000000008152600401611469906127ce565b60405180910390fd5b600260008381526020019081526020016000206000808201600090556001820160006101000a81549073ffffffffffffffffffffffffffffffffffffffff02191690556002820160006114c59190611702565b6003820160006114d59190611702565b6004820160006114e59190611702565b60058201600090556006820160006114fd9190611742565b50505050565b60015481565b6060600060015467ffffffffffffffff8111156115295761152861191e565b5b60405190808252806020026020018201604052801561156257816020015b61154f611763565b8152602001906001900390816115475790505b5090506000600190505b600154811161164e57600360008281526020019081526020016000206040518060a0016040529081600082015481526020016001820160009054906101000a900473ffffffffffffffffffffffffffffffffffffffff1673ffffffffffffffffffffffffffffffffffffffff1673ffffffffffffffffffffffffffffffffffffffff16815260200160028201548152602001600382015481526020016004820154815250508260018361161f9190612610565b815181106116305761162f612644565b5b60200260200101819052508080611646906121d4565b91505061156c565b508091505090565b82805482825590600052602060002090810192821561169e579160200282015b8281111561169d57825182908161168d9190612428565b5091602001919060010190611676565b5b5090506116ab91906117a8565b5090565b6040518060e0016040528060008152602001600073ffffffffffffffffffffffffffffffffffffffff16815260200160608152602001606081526020016060815260200160008152602001606081525090565b50805461170e9061224b565b6000825580601f10611720575061173f565b601f01602090049060005260206000209081019061173e91906117cc565b5b50565b508054600082559060005260206000209081019061176091906117a8565b50565b6040518060a0016040528060008152602001600073ffffffffffffffffffffffffffffffffffffffff1681526020016000815260200160008152602001600081525090565b5b808211156117c857600081816117bf9190611702565b506001016117a9565b5090565b5b808211156117e55760008160009055506001016117cd565b5090565b6000604051905090565b600080fd5b600080fd5b6000819050919050565b611810816117fd565b811461181b57600080fd5b50565b60008135905061182d81611807565b92915050565b600060208284031215611849576118486117f3565b5b60006118578482850161181e565b91505092915050565b611869816117fd565b82525050565b600073ffffffffffffffffffffffffffffffffffffffff82169050919050565b600061189a8261186f565b9050919050565b6118aa8161188f565b82525050565b600060a0820190506118c56000830188611860565b6118d260208301876118a1565b6118df6040830186611860565b6118ec6060830185611860565b6118f96080830184611860565b9695505050505050565b600080fd5b600080fd5b6000601f19601f8301169050919050565b7f4e487b7100000000000000000000000000000000000000000000000000000000600052604160045260246000fd5b6119568261190d565b810181811067ffffffffffffffff821117156119755761197461191e565b5b80604052505050565b60006119886117e9565b9050611994828261194d565b919050565b600067ffffffffffffffff8211156119b4576119b361191e565b5b6119bd8261190d565b9050602081019050919050565b82818337600083830152505050565b60006119ec6119e784611999565b61197e565b905082815260208101848484011115611a0857611a07611908565b5b611a138482856119ca565b509392505050565b600082601f830112611a3057611a2f611903565b5b8135611a408482602086016119d9565b91505092915050565b600067ffffffffffffffff821115611a6457611a6361191e565b5b602082029050602081019050919050565b600080fd5b6000611a8d611a8884611a49565b61197e565b90508083825260208201905060208402830185811115611ab057611aaf611a75565b5b835b81811015611af757803567ffffffffffffffff811115611ad557611ad4611903565b5b808601611ae28982611a1b565b85526020850194505050602081019050611ab2565b5050509392505050565b600082601f830112611b1657611b15611903565b5b8135611b26848260208601611a7a565b91505092915050565b600080600080600060a08688031215611b4b57611b4a6117f3565b5b600086013567ffffffffffffffff811115611b6957611b686117f8565b5b611b7588828901611a1b565b955050602086013567ffffffffffffffff811115611b9657611b956117f8565b5b611ba288828901611a1b565b945050604086013567ffffffffffffffff811115611bc357611bc26117f8565b5b611bcf88828901611a1b565b9350506060611be08882890161181e565b925050608086013567ffffffffffffffff811115611c0157611c006117f8565b5b611c0d88828901611b01565b9150509295509295909350565b6000602082019050611c2f6000830184611860565b92915050565b600081519050919050565b600082825260208201905092915050565b6000819050602082019050919050565b611c6a816117fd565b82525050565b6000611c7b8261186f565b9050919050565b611c8b81611c70565b82525050565b600081519050919050565b600082825260208201905092915050565b60005b83811015611ccb578082015181840152602081019050611cb0565b60008484015250505050565b6000611ce282611c91565b611cec8185611c9c565b9350611cfc818560208601611cad565b611d058161190d565b840191505092915050565b600081519050919050565b600082825260208201905092915050565b6000819050602082019050919050565b6000611d488383611cd7565b905092915050565b6000602082019050919050565b6000611d6882611d10565b611d728185611d1b565b935083602082028501611d8485611d2c565b8060005b85811015611dc05784840389528151611da18582611d3c565b9450611dac83611d50565b925060208a01995050600181019050611d88565b50829750879550505050505092915050565b600060e083016000830151611dea6000860182611c61565b506020830151611dfd6020860182611c82565b5060408301518482036040860152611e158282611cd7565b91505060608301518482036060860152611e2f8282611cd7565b91505060808301518482036080860152611e498282611cd7565b91505060a0830151611e5e60a0860182611c61565b5060c083015184820360c0860152611e768282611d5d565b9150508091505092915050565b6000611e8f8383611dd2565b905092915050565b6000602082019050919050565b6000611eaf82611c35565b611eb98185611c40565b935083602082028501611ecb85611c51565b8060005b85811015611f075784840389528151611ee88582611e83565b9450611ef383611e97565b925060208a01995050600181019050611ecf565b50829750879550505050505092915050565b60006020820190508181036000830152611f338184611ea4565b905092915050565b600080600060608486031215611f5457611f536117f3565b5b6000611f628682870161181e565b9350506020611f738682870161181e565b9250506040611f848682870161181e565b9150509250925092565b611f9781611c70565b82525050565b600082825260208201905092915050565b6000611fb982611c91565b611fc38185611f9d565b9350611fd3818560208601611cad565b611fdc8161190d565b840191505092915050565b600060c082019050611ffc6000830189611860565b6120096020830188611f8e565b818103604083015261201b8187611fae565b9050818103606083015261202f8186611fae565b905081810360808301526120438185611fae565b905061205260a0830184611860565b979650505050505050565b600081519050919050565b600082825260208201905092915050565b6000819050602082019050919050565b6120928161188f565b82525050565b60a0820160008201516120ae6000850182611c61565b5060208201516120c16020850182612089565b5060408201516120d46040850182611c61565b5060608201516120e76060850182611c61565b5060808201516120fa6080850182611c61565b50505050565b600061210c8383612098565b60a08301905092915050565b6000602082019050919050565b60006121308261205d565b61213a8185612068565b935061214583612079565b8060005b8381101561217657815161215d8882612100565b975061216883612118565b925050600181019050612149565b5085935050505092915050565b6000602082019050818103600083015261219d8184612125565b905092915050565b7f4e487b7100000000000000000000000000000000000000000000000000000000600052601160045260246000fd5b60006121df826117fd565b91507fffffffffffffffffffffffffffffffffffffffffffffffffffffffffffffffff8203612211576122106121a5565b5b600182019050919050565b7f4e487b7100000000000000000000000000000000000000000000000000000000600052602260045260246000fd5b6000600282049050600182168061226357607f821691505b6020821081036122765761227561221c565b5b50919050565b60008190508160005260206000209050919050565b60006020601f8301049050919050565b600082821b905092915050565b6000600883026122de7fffffffffffffffffffffffffffffffffffffffffffffffffffffffffffffffff826122a1565b6122e886836122a1565b95508019841693508086168417925050509392505050565b6000819050919050565b600061232561232061231b846117fd565b612300565b6117fd565b9050919050565b6000819050919050565b61233f8361230a565b61235361234b8261232c565b8484546122ae565b825550505050565b600090565b61236861235b565b612373818484612336565b505050565b5b818110156123975761238c600082612360565b600181019050612379565b5050565b601f8211156123dc576123ad8161227c565b6123b684612291565b810160208510156123c5578190505b6123d96123d185612291565b830182612378565b50505b505050565b600082821c905092915050565b60006123ff600019846008026123e1565b1980831691505092915050565b600061241883836123ee565b9150826002028217905092915050565b61243182611c91565b67ffffffffffffffff81111561244a5761244961191e565b5b612454825461224b565b61245f82828561239b565b600060209050601f8311600181146124925760008415612480578287015190505b61248a858261240c565b8655506124f2565b601f1984166124a08661227c565b60005b828110156124c8578489015182556001820191506020850194506020810190506124a3565b868310156124e557848901516124e1601f8916826123ee565b8355505b6001600288020188555050505b505050505050565b600060608201905061250f6000830186611860565b61251c60208301856118a1565b818103604083015261252e8184611fae565b9050949350505050565b7f52657a6572766163696a61206e6520706f73746f6a692e000000000000000000600082015250565b600061256e601783611f9d565b915061257982612538565b602082019050919050565b6000602082019050818103600083015261259d81612561565b9050919050565b7f4e6973746520766c61736e696b2072657a6572766163696a652e000000000000600082015250565b60006125da601a83611f9d565b91506125e5826125a4565b602082019050919050565b60006020820190508181036000830152612609816125cd565b9050919050565b600061261b826117fd565b9150612626836117fd565b925082820390508181111561263e5761263d6121a5565b5b92915050565b7f4e487b7100000000000000000000000000000000000000000000000000000000600052603260045260246000fd5b7f4c697374696e6720646f6573206e6f742065786973742e000000000000000000600082015250565b60006126a9601783611f9d565b91506126b482612673565b602082019050919050565b600060208201905081810360008301526126d88161269c565b9050919050565b7f4e6f7420656e6f756768204554482073656e742e000000000000000000000000600082015250565b6000612715601483611f9d565b9150612720826126df565b602082019050919050565b6000602082019050818103600083015261274481612708565b9050919050565b60006060820190506127606000830186611860565b61276d60208301856118a1565b61277a6040830184611860565b949350505050565b7f4e6973746520766c61736e696b206f676c6173612e0000000000000000000000600082015250565b60006127b8601583611f9d565b91506127c382612782565b602082019050919050565b600060208201905081810360008301526127e7816127ab565b905091905056fea26469706673582212208e574c09c392a7abfed7306347e8a6444cc2ab7749fa2e442df16ffd00fcd07864736f6c63430008120033",
  "linkReferences": {},
  "deployedLinkReferences": {}
}