{
  "_format": "hh-sol-artifact-1",
  "contractName": "mStay",
  "sourceName": "contracts/mStay.sol",
  "abi": [
    {
      "anonymous": false,
      "inputs": [
        {
          "indexed": false,
          "internalType": "uint256",
          "name": "id",
          "type": "uint256"
        },
        {
          "indexed": false,
          "internalType": "address",
          "name": "owner",
          "type": "address"
        },
        {
          "indexed": false,
          "internalType": "string",
          "name": "title",
          "type": "string"
        }
      ],
      "name": "ListingCreated",
      "type": "event"
    },
    {
      "anonymous": false,
      "inputs": [
        {
          "indexed": false,
          "internalType": "uint256",
          "name": "id",
          "type": "uint256"
        },
        {
          "indexed": false,
          "internalType": "address",
          "name": "guest",
          "type": "address"
        },
        {
          "indexed": false,
          "internalType": "uint256",
          "name": "listingId",
          "type": "uint256"
        }
      ],
      "name": "ReservationMade",
      "type": "event"
    },
    {
      "inputs": [
        {
          "internalType": "uint256",
          "name": "_reservationId",
          "type": "uint256"
        }
      ],
      "name": "cancelReservation",
      "outputs": [],
      "stateMutability": "nonpayable",
      "type": "function"
    },
    {
      "inputs": [
        {
          "internalType": "string",
          "name": "_title",
          "type": "string"
        },
        {
          "internalType": "string",
          "name": "_location",
          "type": "string"
        },
        {
          "internalType": "string",
          "name": "_description",
          "type": "string"
        },
        {
          "internalType": "uint256",
          "name": "_pricePerNight",
          "type": "uint256"
        },
        {
          "internalType": "string[]",
          "name": "_images",
          "type": "string[]"
        }
      ],
      "name": "createListing",
      "outputs": [],
      "stateMutability": "nonpayable",
      "type": "function"
    },
    {
      "inputs": [],
      "name": "getAllListings",
      "outputs": [
        {
          "components": [
            {
              "internalType": "uint256",
              "name": "id",
              "type": "uint256"
            },
            {
              "internalType": "address payable",
              "name": "owner",
              "type": "address"
            },
            {
              "internalType": "string",
              "name": "title",
              "type": "string"
            },
            {
              "internalType": "string",
              "name": "location",
              "type": "string"
            },
            {
              "internalType": "string",
              "name": "description",
              "type": "string"
            },
            {
              "internalType": "uint256",
              "name": "pricePerNight",
              "type": "uint256"
            },
            {
              "internalType": "string[]",
              "name": "images",
              "type": "string[]"
            }
          ],
          "internalType": "struct mStay.Listing[]",
          "name": "",
          "type": "tuple[]"
        }
      ],
      "stateMutability": "view",
      "type": "function"
    },
    {
      "inputs": [],
      "name": "getAllReservations",
      "outputs": [
        {
          "components": [
            {
              "internalType": "uint256",
              "name": "id",
              "type": "uint256"
            },
            {
              "internalType": "address",
              "name": "guest",
              "type": "address"
            },
            {
              "internalType": "uint256",
              "name": "listingId",
              "type": "uint256"
            },
            {
              "internalType": "uint256",
              "name": "checkInDate",
              "type": "uint256"
            },
            {
              "internalType": "uint256",
              "name": "checkOutDate",
              "type": "uint256"
            }
          ],
          "internalType": "struct mStay.Reservation[]",
          "name": "",
          "type": "tuple[]"
        }
      ],
      "stateMutability": "view",
      "type": "function"
    },
    {
      "inputs": [],
      "name": "listingCount",
      "outputs": [
        {
          "internalType": "uint256",
          "name": "",
          "type": "uint256"
        }
      ],
      "stateMutability": "view",
      "type": "function"
    },
    {
      "inputs": [
        {
          "internalType": "uint256",
          "name": "",
          "type": "uint256"
        }
      ],
      "name": "listings",
      "outputs": [
        {
          "internalType": "uint256",
          "name": "id",
          "type": "uint256"
        },
        {
          "internalType": "address payable",
          "name": "owner",
          "type": "address"
        },
        {
          "internalType": "string",
          "name": "title",
          "type": "string"
        },
        {
          "internalType": "string",
          "name": "location",
          "type": "string"
        },
        {
          "internalType": "string",
          "name": "description",
          "type": "string"
        },
        {
          "internalType": "uint256",
          "name": "pricePerNight",
          "type": "uint256"
        }
      ],
      "stateMutability": "view",
      "type": "function"
    },
    {
      "inputs": [
        {
          "internalType": "uint256",
          "name": "_listingId",
          "type": "uint256"
        },
        {
          "internalType": "uint256",
          "name": "_checkInDate",
          "type": "uint256"
        },
        {
          "internalType": "uint256",
          "name": "_checkOutDate",
          "type": "uint256"
        }
      ],
      "name": "makeReservation",
      "outputs": [],
      "stateMutability": "payable",
      "type": "function"
    },
    {
      "inputs": [],
      "name": "reservationCount",
      "outputs": [
        {
          "internalType": "uint256",
          "name": "",
          "type": "uint256"
        }
      ],
      "stateMutability": "view",
      "type": "function"
    },
    {
      "inputs": [
        {
          "internalType": "uint256",
          "name": "",
          "type": "uint256"
        }
      ],
      "name": "reservations",
      "outputs": [
        {
          "internalType": "uint256",
          "name": "id",
          "type": "uint256"
        },
        {
          "internalType": "address",
          "name": "guest",
          "type": "address"
        },
        {
          "internalType": "uint256",
          "name": "listingId",
          "type": "uint256"
        },
        {
          "internalType": "uint256",
          "name": "checkInDate",
          "type": "uint256"
        },
        {
          "internalType": "uint256",
          "name": "checkOutDate",
          "type": "uint256"
        }
      ],
      "stateMutability": "view",
      "type": "function"
    }
  ],
  "bytecode": "0x608060405234801561001057600080fd5b50612345806100206000396000f3fe6080604052600436106100865760003560e01c8063ae73ccec11610059578063ae73ccec14610149578063de06e7a614610174578063de74e57b14610190578063e84f756e146101d2578063fbc62833146101fd57610086565b8063067cf8321461008b578063507014c7146100cc578063a9b07c26146100f5578063ae5e6cf414610120575b600080fd5b34801561009757600080fd5b506100b260048036038101906100ad91906113c0565b610228565b6040516100c395949392919061143d565b60405180910390f35b3480156100d857600080fd5b506100f360048036038101906100ee91906116bc565b61027e565b005b34801561010157600080fd5b5061010a6103f5565b60405161011791906117a7565b60405180910390f35b34801561012c57600080fd5b50610147600480360381019061014291906113c0565b6103fb565b005b34801561015557600080fd5b5061015e6105b5565b60405161016b9190611aa6565b60405180910390f35b61018e60048036038101906101899190611ac8565b61097c565b005b34801561019c57600080fd5b506101b760048036038101906101b291906113c0565b610ebd565b6040516101c996959493929190611b74565b60405180910390f35b3480156101de57600080fd5b506101e76110b1565b6040516101f491906117a7565b60405180910390f35b34801561020957600080fd5b506102126110b7565b60405161021f9190611d10565b60405180910390f35b60036020528060005260406000206000915090508060000154908060010160009054906101000a900473ffffffffffffffffffffffffffffffffffffffff16908060020154908060030154908060040154905085565b60008081548092919061029090611d61565b91905055506040518060e0016040528060005481526020013373ffffffffffffffffffffffffffffffffffffffff1681526020018681526020018581526020018481526020018381526020018281525060026000805481526020019081526020016000206000820151816000015560208201518160010160006101000a81548173ffffffffffffffffffffffffffffffffffffffff021916908373ffffffffffffffffffffffffffffffffffffffff160217905550604082015181600201908161035a9190611fb5565b5060608201518160030190816103709190611fb5565b5060808201518160040190816103869190611fb5565b5060a0820151816005015560c08201518160060190805190602001906103ad929190611204565b509050507ffccfab3757a37767d03b5ffd499faaa9faf5a6d33900ee43e310e77bce34940b60005433876040516103e693929190612087565b60405180910390a15050505050565b60005481565b6000600360008381526020019081526020016000206040518060a0016040529081600082015481526020016001820160009054906101000a900473ffffffffffffffffffffffffffffffffffffffff1673ffffffffffffffffffffffffffffffffffffffff1673ffffffffffffffffffffffffffffffffffffffff1681526020016002820154815260200160038201548152602001600482015481525050905060008160000151036104e2576040517f08c379a00000000000000000000000000000000000000000000000000000000081526004016104d990612111565b60405180910390fd5b3373ffffffffffffffffffffffffffffffffffffffff16816020015173ffffffffffffffffffffffffffffffffffffffff1614610554576040517f08c379a000000000000000000000000000000000000000000000000000000000815260040161054b9061217d565b60405180910390fd5b600360008381526020019081526020016000206000808201600090556001820160006101000a81549073ffffffffffffffffffffffffffffffffffffffff021916905560028201600090556003820160009055600482016000905550505050565b60606000805467ffffffffffffffff8111156105d4576105d36114ab565b5b60405190808252806020026020018201604052801561060d57816020015b6105fa61125d565b8152602001906001900390816105f25790505b5090506000600190505b600054811161097457600260008281526020019081526020016000206040518060e0016040529081600082015481526020016001820160009054906101000a900473ffffffffffffffffffffffffffffffffffffffff1673ffffffffffffffffffffffffffffffffffffffff1673ffffffffffffffffffffffffffffffffffffffff1681526020016002820180546106ae90611dd8565b80601f01602080910402602001604051908101604052809291908181526020018280546106da90611dd8565b80156107275780601f106106fc57610100808354040283529160200191610727565b820191906000526020600020905b81548152906001019060200180831161070a57829003601f168201915b5050505050815260200160038201805461074090611dd8565b80601f016020809104026020016040519081016040528092919081815260200182805461076c90611dd8565b80156107b95780601f1061078e576101008083540402835291602001916107b9565b820191906000526020600020905b81548152906001019060200180831161079c57829003601f168201915b505050505081526020016004820180546107d290611dd8565b80601f01602080910402602001604051908101604052809291908181526020018280546107fe90611dd8565b801561084b5780601f106108205761010080835404028352916020019161084b565b820191906000526020600020905b81548152906001019060200180831161082e57829003601f168201915b505050505081526020016005820154815260200160068201805480602002602001604051908101604052809291908181526020016000905b8282101561092f5783829060005260206000200180546108a290611dd8565b80601f01602080910402602001604051908101604052809291908181526020018280546108ce90611dd8565b801561091b5780601f106108f05761010080835404028352916020019161091b565b820191906000526020600020905b8154815290600101906020018083116108fe57829003601f168201915b505050505081526020019060010190610883565b505050508152505082600183610945919061219d565b81518110610956576109556121d1565b5b6020026020010181905250808061096c90611d61565b915050610617565b508091505090565b6000600260008581526020019081526020016000206040518060e0016040529081600082015481526020016001820160009054906101000a900473ffffffffffffffffffffffffffffffffffffffff1673ffffffffffffffffffffffffffffffffffffffff1673ffffffffffffffffffffffffffffffffffffffff168152602001600282018054610a0c90611dd8565b80601f0160208091040260200160405190810160405280929190818152602001828054610a3890611dd8565b8015610a855780601f10610a5a57610100808354040283529160200191610a85565b820191906000526020600020905b815481529060010190602001808311610a6857829003601f168201915b50505050508152602001600382018054610a9e90611dd8565b80601f0160208091040260200160405190810160405280929190818152602001828054610aca90611dd8565b8015610b175780601f10610aec57610100808354040283529160200191610b17565b820191906000526020600020905b815481529060010190602001808311610afa57829003601f168201915b50505050508152602001600482018054610b3090611dd8565b80601f0160208091040260200160405190810160405280929190818152602001828054610b5c90611dd8565b8015610ba95780601f10610b7e57610100808354040283529160200191610ba9565b820191906000526020600020905b815481529060010190602001808311610b8c57829003601f168201915b505050505081526020016005820154815260200160068201805480602002602001604051908101604052809291908181526020016000905b82821015610c8d578382906000526020600020018054610c0090611dd8565b80601f0160208091040260200160405190810160405280929190818152602001828054610c2c90611dd8565b8015610c795780601f10610c4e57610100808354040283529160200191610c79565b820191906000526020600020905b815481529060010190602001808311610c5c57829003601f168201915b505050505081526020019060010190610be1565b50505050815250509050600073ffffffffffffffffffffffffffffffffffffffff16816020015173ffffffffffffffffffffffffffffffffffffffff1603610d0a576040517f08c379a0000000000000000000000000000000000000000000000000000000008152600401610d019061224c565b60405180910390fd5b8060a00151341015610d51576040517f08c379a0000000000000000000000000000000000000000000000000000000008152600401610d48906122b8565b60405180910390fd5b60016000815480929190610d6490611d61565b91905055506040518060a0016040528060015481526020013373ffffffffffffffffffffffffffffffffffffffff168152602001858152602001848152602001838152506003600060015481526020019081526020016000206000820151816000015560208201518160010160006101000a81548173ffffffffffffffffffffffffffffffffffffffff021916908373ffffffffffffffffffffffffffffffffffffffff160217905550604082015181600201556060820151816003015560808201518160040155905050806020015173ffffffffffffffffffffffffffffffffffffffff166108fc349081150290604051600060405180830381858888f19350505050158015610e79573d6000803e3d6000fd5b507f1454e9ce257a8f02d1dcfcab9cf23320507f1597a918e65c2ab9e457f9acb2cc6001543386604051610eaf939291906122d8565b60405180910390a150505050565b60026020528060005260406000206000915090508060000154908060010160009054906101000a900473ffffffffffffffffffffffffffffffffffffffff1690806002018054610f0c90611dd8565b80601f0160208091040260200160405190810160405280929190818152602001828054610f3890611dd8565b8015610f855780601f10610f5a57610100808354040283529160200191610f85565b820191906000526020600020905b815481529060010190602001808311610f6857829003601f168201915b505050505090806003018054610f9a90611dd8565b80601f0160208091040260200160405190810160405280929190818152602001828054610fc690611dd8565b80156110135780601f10610fe857610100808354040283529160200191611013565b820191906000526020600020905b815481529060010190602001808311610ff657829003601f168201915b50505050509080600401805461102890611dd8565b80601f016020809104026020016040519081016040528092919081815260200182805461105490611dd8565b80156110a15780601f10611076576101008083540402835291602001916110a1565b820191906000526020600020905b81548152906001019060200180831161108457829003601f168201915b5050505050908060050154905086565b60015481565b6060600060015467ffffffffffffffff8111156110d7576110d66114ab565b5b60405190808252806020026020018201604052801561111057816020015b6110fd6112b0565b8152602001906001900390816110f55790505b5090506000600190505b60015481116111fc57600360008281526020019081526020016000206040518060a0016040529081600082015481526020016001820160009054906101000a900473ffffffffffffffffffffffffffffffffffffffff1673ffffffffffffffffffffffffffffffffffffffff1673ffffffffffffffffffffffffffffffffffffffff1681526020016002820154815260200160038201548152602001600482015481525050826001836111cd919061219d565b815181106111de576111dd6121d1565b5b602002602001018190525080806111f490611d61565b91505061111a565b508091505090565b82805482825590600052602060002090810192821561124c579160200282015b8281111561124b57825182908161123b9190611fb5565b5091602001919060010190611224565b5b50905061125991906112f5565b5090565b6040518060e0016040528060008152602001600073ffffffffffffffffffffffffffffffffffffffff16815260200160608152602001606081526020016060815260200160008152602001606081525090565b6040518060a0016040528060008152602001600073ffffffffffffffffffffffffffffffffffffffff1681526020016000815260200160008152602001600081525090565b5b80821115611315576000818161130c9190611319565b506001016112f6565b5090565b50805461132590611dd8565b6000825580601f106113375750611356565b601f0160209004906000526020600020908101906113559190611359565b5b50565b5b8082111561137257600081600090555060010161135a565b5090565b6000604051905090565b600080fd5b600080fd5b6000819050919050565b61139d8161138a565b81146113a857600080fd5b50565b6000813590506113ba81611394565b92915050565b6000602082840312156113d6576113d5611380565b5b60006113e4848285016113ab565b91505092915050565b6113f68161138a565b82525050565b600073ffffffffffffffffffffffffffffffffffffffff82169050919050565b6000611427826113fc565b9050919050565b6114378161141c565b82525050565b600060a08201905061145260008301886113ed565b61145f602083018761142e565b61146c60408301866113ed565b61147960608301856113ed565b61148660808301846113ed565b9695505050505050565b600080fd5b600080fd5b6000601f19601f8301169050919050565b7f4e487b7100000000000000000000000000000000000000000000000000000000600052604160045260246000fd5b6114e38261149a565b810181811067ffffffffffffffff82111715611502576115016114ab565b5b80604052505050565b6000611515611376565b905061152182826114da565b919050565b600067ffffffffffffffff821115611541576115406114ab565b5b61154a8261149a565b9050602081019050919050565b82818337600083830152505050565b600061157961157484611526565b61150b565b90508281526020810184848401111561159557611594611495565b5b6115a0848285611557565b509392505050565b600082601f8301126115bd576115bc611490565b5b81356115cd848260208601611566565b91505092915050565b600067ffffffffffffffff8211156115f1576115f06114ab565b5b602082029050602081019050919050565b600080fd5b600061161a611615846115d6565b61150b565b9050808382526020820190506020840283018581111561163d5761163c611602565b5b835b8181101561168457803567ffffffffffffffff81111561166257611661611490565b5b80860161166f89826115a8565b8552602085019450505060208101905061163f565b5050509392505050565b600082601f8301126116a3576116a2611490565b5b81356116b3848260208601611607565b91505092915050565b600080600080600060a086880312156116d8576116d7611380565b5b600086013567ffffffffffffffff8111156116f6576116f5611385565b5b611702888289016115a8565b955050602086013567ffffffffffffffff81111561172357611722611385565b5b61172f888289016115a8565b945050604086013567ffffffffffffffff8111156117505761174f611385565b5b61175c888289016115a8565b935050606061176d888289016113ab565b925050608086013567ffffffffffffffff81111561178e5761178d611385565b5b61179a8882890161168e565b9150509295509295909350565b60006020820190506117bc60008301846113ed565b92915050565b600081519050919050565b600082825260208201905092915050565b6000819050602082019050919050565b6117f78161138a565b82525050565b6000611808826113fc565b9050919050565b611818816117fd565b82525050565b600081519050919050565b600082825260208201905092915050565b60005b8381101561185857808201518184015260208101905061183d565b60008484015250505050565b600061186f8261181e565b6118798185611829565b935061188981856020860161183a565b6118928161149a565b840191505092915050565b600081519050919050565b600082825260208201905092915050565b6000819050602082019050919050565b60006118d58383611864565b905092915050565b6000602082019050919050565b60006118f58261189d565b6118ff81856118a8565b935083602082028501611911856118b9565b8060005b8581101561194d578484038952815161192e85826118c9565b9450611939836118dd565b925060208a01995050600181019050611915565b50829750879550505050505092915050565b600060e08301600083015161197760008601826117ee565b50602083015161198a602086018261180f565b50604083015184820360408601526119a28282611864565b915050606083015184820360608601526119bc8282611864565b915050608083015184820360808601526119d68282611864565b91505060a08301516119eb60a08601826117ee565b5060c083015184820360c0860152611a0382826118ea565b9150508091505092915050565b6000611a1c838361195f565b905092915050565b6000602082019050919050565b6000611a3c826117c2565b611a4681856117cd565b935083602082028501611a58856117de565b8060005b85811015611a945784840389528151611a758582611a10565b9450611a8083611a24565b925060208a01995050600181019050611a5c565b50829750879550505050505092915050565b60006020820190508181036000830152611ac08184611a31565b905092915050565b600080600060608486031215611ae157611ae0611380565b5b6000611aef868287016113ab565b9350506020611b00868287016113ab565b9250506040611b11868287016113ab565b9150509250925092565b611b24816117fd565b82525050565b600082825260208201905092915050565b6000611b468261181e565b611b508185611b2a565b9350611b6081856020860161183a565b611b698161149a565b840191505092915050565b600060c082019050611b8960008301896113ed565b611b966020830188611b1b565b8181036040830152611ba88187611b3b565b90508181036060830152611bbc8186611b3b565b90508181036080830152611bd08185611b3b565b9050611bdf60a08301846113ed565b979650505050505050565b600081519050919050565b600082825260208201905092915050565b6000819050602082019050919050565b611c1f8161141c565b82525050565b60a082016000820151611c3b60008501826117ee565b506020820151611c4e6020850182611c16565b506040820151611c6160408501826117ee565b506060820151611c7460608501826117ee565b506080820151611c8760808501826117ee565b50505050565b6000611c998383611c25565b60a08301905092915050565b6000602082019050919050565b6000611cbd82611bea565b611cc78185611bf5565b9350611cd283611c06565b8060005b83811015611d03578151611cea8882611c8d565b9750611cf583611ca5565b925050600181019050611cd6565b5085935050505092915050565b60006020820190508181036000830152611d2a8184611cb2565b905092915050565b7f4e487b7100000000000000000000000000000000000000000000000000000000600052601160045260246000fd5b6000611d6c8261138a565b91507fffffffffffffffffffffffffffffffffffffffffffffffffffffffffffffffff8203611d9e57611d9d611d32565b5b600182019050919050565b7f4e487b7100000000000000000000000000000000000000000000000000000000600052602260045260246000fd5b60006002820490506001821680611df057607f821691505b602082108103611e0357611e02611da9565b5b50919050565b60008190508160005260206000209050919050565b60006020601f8301049050919050565b600082821b905092915050565b600060088302611e6b7fffffffffffffffffffffffffffffffffffffffffffffffffffffffffffffffff82611e2e565b611e758683611e2e565b95508019841693508086168417925050509392505050565b6000819050919050565b6000611eb2611ead611ea88461138a565b611e8d565b61138a565b9050919050565b6000819050919050565b611ecc83611e97565b611ee0611ed882611eb9565b848454611e3b565b825550505050565b600090565b611ef5611ee8565b611f00818484611ec3565b505050565b5b81811015611f2457611f19600082611eed565b600181019050611f06565b5050565b601f821115611f6957611f3a81611e09565b611f4384611e1e565b81016020851015611f52578190505b611f66611f5e85611e1e565b830182611f05565b50505b505050565b600082821c905092915050565b6000611f8c60001984600802611f6e565b1980831691505092915050565b6000611fa58383611f7b565b9150826002028217905092915050565b611fbe8261181e565b67ffffffffffffffff811115611fd757611fd66114ab565b5b611fe18254611dd8565b611fec828285611f28565b600060209050601f83116001811461201f576000841561200d578287015190505b6120178582611f99565b86555061207f565b601f19841661202d86611e09565b60005b8281101561205557848901518255600182019150602085019450602081019050612030565b86831015612072578489015161206e601f891682611f7b565b8355505b6001600288020188555050505b505050505050565b600060608201905061209c60008301866113ed565b6120a9602083018561142e565b81810360408301526120bb8184611b3b565b9050949350505050565b7f52657a6572766163696a61206e6520706f73746f6a692e000000000000000000600082015250565b60006120fb601783611b2a565b9150612106826120c5565b602082019050919050565b6000602082019050818103600083015261212a816120ee565b9050919050565b7f4e6973746520766c61736e696b2072657a6572766163696a652e000000000000600082015250565b6000612167601a83611b2a565b915061217282612131565b602082019050919050565b600060208201905081810360008301526121968161215a565b9050919050565b60006121a88261138a565b91506121b38361138a565b92508282039050818111156121cb576121ca611d32565b5b92915050565b7f4e487b7100000000000000000000000000000000000000000000000000000000600052603260045260246000fd5b7f4c697374696e6720646f6573206e6f742065786973742e000000000000000000600082015250565b6000612236601783611b2a565b915061224182612200565b602082019050919050565b6000602082019050818103600083015261226581612229565b9050919050565b7f4e6f7420656e6f756768204554482073656e742e000000000000000000000000600082015250565b60006122a2601483611b2a565b91506122ad8261226c565b602082019050919050565b600060208201905081810360008301526122d181612295565b9050919050565b60006060820190506122ed60008301866113ed565b6122fa602083018561142e565b61230760408301846113ed565b94935050505056fea2646970667358221220f85bc18fe820806c4fcfbf72e0bd1b8427ce65b911f9f7b16c4c831e80aa14d464736f6c63430008120033",
  "linkReferences": {},
  "deployedLinkReferences": {}
}