{
  "_format": "hh-sol-artifact-1",
  "contractName": "mStay",
  "sourceName": "contracts/mStay.sol",
  "abi": [
    {
      "anonymous": false,
      "inputs": [
        {
          "indexed": false,
          "internalType": "uint256",
          "name": "id",
          "type": "uint256"
        },
        {
          "indexed": false,
          "internalType": "address",
          "name": "owner",
          "type": "address"
        },
        {
          "indexed": false,
          "internalType": "string",
          "name": "title",
          "type": "string"
        }
      ],
      "name": "ListingCreated",
      "type": "event"
    },
    {
      "anonymous": false,
      "inputs": [
        {
          "indexed": false,
          "internalType": "uint256",
          "name": "id",
          "type": "uint256"
        },
        {
          "indexed": false,
          "internalType": "address",
          "name": "guest",
          "type": "address"
        },
        {
          "indexed": false,
          "internalType": "uint256",
          "name": "listingId",
          "type": "uint256"
        }
      ],
      "name": "ReservationMade",
      "type": "event"
    },
    {
      "inputs": [
        {
          "internalType": "string",
          "name": "_title",
          "type": "string"
        },
        {
          "internalType": "string",
          "name": "_location",
          "type": "string"
        },
        {
          "internalType": "string",
          "name": "_description",
          "type": "string"
        },
        {
          "internalType": "uint256",
          "name": "_pricePerNight",
          "type": "uint256"
        },
        {
          "internalType": "string[]",
          "name": "_images",
          "type": "string[]"
        }
      ],
      "name": "createListing",
      "outputs": [],
      "stateMutability": "nonpayable",
      "type": "function"
    },
    {
      "inputs": [],
      "name": "getAllListings",
      "outputs": [
        {
          "components": [
            {
              "internalType": "uint256",
              "name": "id",
              "type": "uint256"
            },
            {
              "internalType": "address payable",
              "name": "owner",
              "type": "address"
            },
            {
              "internalType": "string",
              "name": "title",
              "type": "string"
            },
            {
              "internalType": "string",
              "name": "location",
              "type": "string"
            },
            {
              "internalType": "string",
              "name": "description",
              "type": "string"
            },
            {
              "internalType": "uint256",
              "name": "pricePerNight",
              "type": "uint256"
            },
            {
              "internalType": "string[]",
              "name": "images",
              "type": "string[]"
            }
          ],
          "internalType": "struct mStay.Listing[]",
          "name": "",
          "type": "tuple[]"
        }
      ],
      "stateMutability": "view",
      "type": "function"
    },
    {
      "inputs": [],
      "name": "listingCount",
      "outputs": [
        {
          "internalType": "uint256",
          "name": "",
          "type": "uint256"
        }
      ],
      "stateMutability": "view",
      "type": "function"
    },
    {
      "inputs": [
        {
          "internalType": "uint256",
          "name": "",
          "type": "uint256"
        }
      ],
      "name": "listings",
      "outputs": [
        {
          "internalType": "uint256",
          "name": "id",
          "type": "uint256"
        },
        {
          "internalType": "address payable",
          "name": "owner",
          "type": "address"
        },
        {
          "internalType": "string",
          "name": "title",
          "type": "string"
        },
        {
          "internalType": "string",
          "name": "location",
          "type": "string"
        },
        {
          "internalType": "string",
          "name": "description",
          "type": "string"
        },
        {
          "internalType": "uint256",
          "name": "pricePerNight",
          "type": "uint256"
        }
      ],
      "stateMutability": "view",
      "type": "function"
    },
    {
      "inputs": [
        {
          "internalType": "uint256",
          "name": "_listingId",
          "type": "uint256"
        },
        {
          "internalType": "uint256",
          "name": "_checkInDate",
          "type": "uint256"
        },
        {
          "internalType": "uint256",
          "name": "_checkOutDate",
          "type": "uint256"
        }
      ],
      "name": "makeReservation",
      "outputs": [],
      "stateMutability": "payable",
      "type": "function"
    },
    {
      "inputs": [],
      "name": "reservationCount",
      "outputs": [
        {
          "internalType": "uint256",
          "name": "",
          "type": "uint256"
        }
      ],
      "stateMutability": "view",
      "type": "function"
    },
    {
      "inputs": [
        {
          "internalType": "uint256",
          "name": "",
          "type": "uint256"
        }
      ],
      "name": "reservations",
      "outputs": [
        {
          "internalType": "uint256",
          "name": "id",
          "type": "uint256"
        },
        {
          "internalType": "address",
          "name": "guest",
          "type": "address"
        },
        {
          "internalType": "uint256",
          "name": "listingId",
          "type": "uint256"
        },
        {
          "internalType": "uint256",
          "name": "checkInDate",
          "type": "uint256"
        },
        {
          "internalType": "uint256",
          "name": "checkOutDate",
          "type": "uint256"
        }
      ],
      "stateMutability": "view",
      "type": "function"
    }
  ],
  "bytecode": "0x608060405234801561001057600080fd5b50611d6f806100206000396000f3fe6080604052600436106100705760003560e01c8063ae73ccec1161004e578063ae73ccec1461010a578063de06e7a614610135578063de74e57b14610151578063e84f756e1461019357610070565b8063067cf83214610075578063507014c7146100b6578063a9b07c26146100df575b600080fd5b34801561008157600080fd5b5061009c6004803603810190610097919061100a565b6101be565b6040516100ad959493929190611087565b60405180910390f35b3480156100c257600080fd5b506100dd60048036038101906100d89190611306565b610214565b005b3480156100eb57600080fd5b506100f461038b565b60405161010191906113f1565b60405180910390f35b34801561011657600080fd5b5061011f610391565b60405161012c91906116f0565b60405180910390f35b61014f600480360381019061014a9190611712565b610758565b005b34801561015d57600080fd5b506101786004803603810190610173919061100a565b610c99565b60405161018a969594939291906117be565b60405180910390f35b34801561019f57600080fd5b506101a8610e8d565b6040516101b591906113f1565b60405180910390f35b60036020528060005260406000206000915090508060000154908060010160009054906101000a900473ffffffffffffffffffffffffffffffffffffffff16908060020154908060030154908060040154905085565b60008081548092919061022690611863565b91905055506040518060e0016040528060005481526020013373ffffffffffffffffffffffffffffffffffffffff1681526020018681526020018581526020018481526020018381526020018281525060026000805481526020019081526020016000206000820151816000015560208201518160010160006101000a81548173ffffffffffffffffffffffffffffffffffffffff021916908373ffffffffffffffffffffffffffffffffffffffff16021790555060408201518160020190816102f09190611ab7565b5060608201518160030190816103069190611ab7565b50608082015181600401908161031c9190611ab7565b5060a0820151816005015560c0820151816006019080519060200190610343929190610e93565b509050507ffccfab3757a37767d03b5ffd499faaa9faf5a6d33900ee43e310e77bce34940b600054338760405161037c93929190611b89565b60405180910390a15050505050565b60005481565b60606000805467ffffffffffffffff8111156103b0576103af6110f5565b5b6040519080825280602002602001820160405280156103e957816020015b6103d6610eec565b8152602001906001900390816103ce5790505b5090506000600190505b600054811161075057600260008281526020019081526020016000206040518060e0016040529081600082015481526020016001820160009054906101000a900473ffffffffffffffffffffffffffffffffffffffff1673ffffffffffffffffffffffffffffffffffffffff1673ffffffffffffffffffffffffffffffffffffffff16815260200160028201805461048a906118da565b80601f01602080910402602001604051908101604052809291908181526020018280546104b6906118da565b80156105035780601f106104d857610100808354040283529160200191610503565b820191906000526020600020905b8154815290600101906020018083116104e657829003601f168201915b5050505050815260200160038201805461051c906118da565b80601f0160208091040260200160405190810160405280929190818152602001828054610548906118da565b80156105955780601f1061056a57610100808354040283529160200191610595565b820191906000526020600020905b81548152906001019060200180831161057857829003601f168201915b505050505081526020016004820180546105ae906118da565b80601f01602080910402602001604051908101604052809291908181526020018280546105da906118da565b80156106275780601f106105fc57610100808354040283529160200191610627565b820191906000526020600020905b81548152906001019060200180831161060a57829003601f168201915b505050505081526020016005820154815260200160068201805480602002602001604051908101604052809291908181526020016000905b8282101561070b57838290600052602060002001805461067e906118da565b80601f01602080910402602001604051908101604052809291908181526020018280546106aa906118da565b80156106f75780601f106106cc576101008083540402835291602001916106f7565b820191906000526020600020905b8154815290600101906020018083116106da57829003601f168201915b50505050508152602001906001019061065f565b5050505081525050826001836107219190611bc7565b8151811061073257610731611bfb565b5b6020026020010181905250808061074890611863565b9150506103f3565b508091505090565b6000600260008581526020019081526020016000206040518060e0016040529081600082015481526020016001820160009054906101000a900473ffffffffffffffffffffffffffffffffffffffff1673ffffffffffffffffffffffffffffffffffffffff1673ffffffffffffffffffffffffffffffffffffffff1681526020016002820180546107e8906118da565b80601f0160208091040260200160405190810160405280929190818152602001828054610814906118da565b80156108615780601f1061083657610100808354040283529160200191610861565b820191906000526020600020905b81548152906001019060200180831161084457829003601f168201915b5050505050815260200160038201805461087a906118da565b80601f01602080910402602001604051908101604052809291908181526020018280546108a6906118da565b80156108f35780601f106108c8576101008083540402835291602001916108f3565b820191906000526020600020905b8154815290600101906020018083116108d657829003601f168201915b5050505050815260200160048201805461090c906118da565b80601f0160208091040260200160405190810160405280929190818152602001828054610938906118da565b80156109855780601f1061095a57610100808354040283529160200191610985565b820191906000526020600020905b81548152906001019060200180831161096857829003601f168201915b505050505081526020016005820154815260200160068201805480602002602001604051908101604052809291908181526020016000905b82821015610a695783829060005260206000200180546109dc906118da565b80601f0160208091040260200160405190810160405280929190818152602001828054610a08906118da565b8015610a555780601f10610a2a57610100808354040283529160200191610a55565b820191906000526020600020905b815481529060010190602001808311610a3857829003601f168201915b5050505050815260200190600101906109bd565b50505050815250509050600073ffffffffffffffffffffffffffffffffffffffff16816020015173ffffffffffffffffffffffffffffffffffffffff1603610ae6576040517f08c379a0000000000000000000000000000000000000000000000000000000008152600401610add90611c76565b60405180910390fd5b8060a00151341015610b2d576040517f08c379a0000000000000000000000000000000000000000000000000000000008152600401610b2490611ce2565b60405180910390fd5b60016000815480929190610b4090611863565b91905055506040518060a0016040528060015481526020013373ffffffffffffffffffffffffffffffffffffffff168152602001858152602001848152602001838152506003600060015481526020019081526020016000206000820151816000015560208201518160010160006101000a81548173ffffffffffffffffffffffffffffffffffffffff021916908373ffffffffffffffffffffffffffffffffffffffff160217905550604082015181600201556060820151816003015560808201518160040155905050806020015173ffffffffffffffffffffffffffffffffffffffff166108fc349081150290604051600060405180830381858888f19350505050158015610c55573d6000803e3d6000fd5b507f1454e9ce257a8f02d1dcfcab9cf23320507f1597a918e65c2ab9e457f9acb2cc6001543386604051610c8b93929190611d02565b60405180910390a150505050565b60026020528060005260406000206000915090508060000154908060010160009054906101000a900473ffffffffffffffffffffffffffffffffffffffff1690806002018054610ce8906118da565b80601f0160208091040260200160405190810160405280929190818152602001828054610d14906118da565b8015610d615780601f10610d3657610100808354040283529160200191610d61565b820191906000526020600020905b815481529060010190602001808311610d4457829003601f168201915b505050505090806003018054610d76906118da565b80601f0160208091040260200160405190810160405280929190818152602001828054610da2906118da565b8015610def5780601f10610dc457610100808354040283529160200191610def565b820191906000526020600020905b815481529060010190602001808311610dd257829003601f168201915b505050505090806004018054610e04906118da565b80601f0160208091040260200160405190810160405280929190818152602001828054610e30906118da565b8015610e7d5780601f10610e5257610100808354040283529160200191610e7d565b820191906000526020600020905b815481529060010190602001808311610e6057829003601f168201915b5050505050908060050154905086565b60015481565b828054828255906000526020600020908101928215610edb579160200282015b82811115610eda578251829081610eca9190611ab7565b5091602001919060010190610eb3565b5b509050610ee89190610f3f565b5090565b6040518060e0016040528060008152602001600073ffffffffffffffffffffffffffffffffffffffff16815260200160608152602001606081526020016060815260200160008152602001606081525090565b5b80821115610f5f5760008181610f569190610f63565b50600101610f40565b5090565b508054610f6f906118da565b6000825580601f10610f815750610fa0565b601f016020900490600052602060002090810190610f9f9190610fa3565b5b50565b5b80821115610fbc576000816000905550600101610fa4565b5090565b6000604051905090565b600080fd5b600080fd5b6000819050919050565b610fe781610fd4565b8114610ff257600080fd5b50565b60008135905061100481610fde565b92915050565b6000602082840312156110205761101f610fca565b5b600061102e84828501610ff5565b91505092915050565b61104081610fd4565b82525050565b600073ffffffffffffffffffffffffffffffffffffffff82169050919050565b600061107182611046565b9050919050565b61108181611066565b82525050565b600060a08201905061109c6000830188611037565b6110a96020830187611078565b6110b66040830186611037565b6110c36060830185611037565b6110d06080830184611037565b9695505050505050565b600080fd5b600080fd5b6000601f19601f8301169050919050565b7f4e487b7100000000000000000000000000000000000000000000000000000000600052604160045260246000fd5b61112d826110e4565b810181811067ffffffffffffffff8211171561114c5761114b6110f5565b5b80604052505050565b600061115f610fc0565b905061116b8282611124565b919050565b600067ffffffffffffffff82111561118b5761118a6110f5565b5b611194826110e4565b9050602081019050919050565b82818337600083830152505050565b60006111c36111be84611170565b611155565b9050828152602081018484840111156111df576111de6110df565b5b6111ea8482856111a1565b509392505050565b600082601f830112611207576112066110da565b5b81356112178482602086016111b0565b91505092915050565b600067ffffffffffffffff82111561123b5761123a6110f5565b5b602082029050602081019050919050565b600080fd5b600061126461125f84611220565b611155565b905080838252602082019050602084028301858111156112875761128661124c565b5b835b818110156112ce57803567ffffffffffffffff8111156112ac576112ab6110da565b5b8086016112b989826111f2565b85526020850194505050602081019050611289565b5050509392505050565b600082601f8301126112ed576112ec6110da565b5b81356112fd848260208601611251565b91505092915050565b600080600080600060a0868803121561132257611321610fca565b5b600086013567ffffffffffffffff8111156113405761133f610fcf565b5b61134c888289016111f2565b955050602086013567ffffffffffffffff81111561136d5761136c610fcf565b5b611379888289016111f2565b945050604086013567ffffffffffffffff81111561139a57611399610fcf565b5b6113a6888289016111f2565b93505060606113b788828901610ff5565b925050608086013567ffffffffffffffff8111156113d8576113d7610fcf565b5b6113e4888289016112d8565b9150509295509295909350565b60006020820190506114066000830184611037565b92915050565b600081519050919050565b600082825260208201905092915050565b6000819050602082019050919050565b61144181610fd4565b82525050565b600061145282611046565b9050919050565b61146281611447565b82525050565b600081519050919050565b600082825260208201905092915050565b60005b838110156114a2578082015181840152602081019050611487565b60008484015250505050565b60006114b982611468565b6114c38185611473565b93506114d3818560208601611484565b6114dc816110e4565b840191505092915050565b600081519050919050565b600082825260208201905092915050565b6000819050602082019050919050565b600061151f83836114ae565b905092915050565b6000602082019050919050565b600061153f826114e7565b61154981856114f2565b93508360208202850161155b85611503565b8060005b8581101561159757848403895281516115788582611513565b945061158383611527565b925060208a0199505060018101905061155f565b50829750879550505050505092915050565b600060e0830160008301516115c16000860182611438565b5060208301516115d46020860182611459565b50604083015184820360408601526115ec82826114ae565b9150506060830151848203606086015261160682826114ae565b9150506080830151848203608086015261162082826114ae565b91505060a083015161163560a0860182611438565b5060c083015184820360c086015261164d8282611534565b9150508091505092915050565b600061166683836115a9565b905092915050565b6000602082019050919050565b60006116868261140c565b6116908185611417565b9350836020820285016116a285611428565b8060005b858110156116de57848403895281516116bf858261165a565b94506116ca8361166e565b925060208a019950506001810190506116a6565b50829750879550505050505092915050565b6000602082019050818103600083015261170a818461167b565b905092915050565b60008060006060848603121561172b5761172a610fca565b5b600061173986828701610ff5565b935050602061174a86828701610ff5565b925050604061175b86828701610ff5565b9150509250925092565b61176e81611447565b82525050565b600082825260208201905092915050565b600061179082611468565b61179a8185611774565b93506117aa818560208601611484565b6117b3816110e4565b840191505092915050565b600060c0820190506117d36000830189611037565b6117e06020830188611765565b81810360408301526117f28187611785565b905081810360608301526118068186611785565b9050818103608083015261181a8185611785565b905061182960a0830184611037565b979650505050505050565b7f4e487b7100000000000000000000000000000000000000000000000000000000600052601160045260246000fd5b600061186e82610fd4565b91507fffffffffffffffffffffffffffffffffffffffffffffffffffffffffffffffff82036118a05761189f611834565b5b600182019050919050565b7f4e487b7100000000000000000000000000000000000000000000000000000000600052602260045260246000fd5b600060028204905060018216806118f257607f821691505b602082108103611905576119046118ab565b5b50919050565b60008190508160005260206000209050919050565b60006020601f8301049050919050565b600082821b905092915050565b60006008830261196d7fffffffffffffffffffffffffffffffffffffffffffffffffffffffffffffffff82611930565b6119778683611930565b95508019841693508086168417925050509392505050565b6000819050919050565b60006119b46119af6119aa84610fd4565b61198f565b610fd4565b9050919050565b6000819050919050565b6119ce83611999565b6119e26119da826119bb565b84845461193d565b825550505050565b600090565b6119f76119ea565b611a028184846119c5565b505050565b5b81811015611a2657611a1b6000826119ef565b600181019050611a08565b5050565b601f821115611a6b57611a3c8161190b565b611a4584611920565b81016020851015611a54578190505b611a68611a6085611920565b830182611a07565b50505b505050565b600082821c905092915050565b6000611a8e60001984600802611a70565b1980831691505092915050565b6000611aa78383611a7d565b9150826002028217905092915050565b611ac082611468565b67ffffffffffffffff811115611ad957611ad86110f5565b5b611ae382546118da565b611aee828285611a2a565b600060209050601f831160018114611b215760008415611b0f578287015190505b611b198582611a9b565b865550611b81565b601f198416611b2f8661190b565b60005b82811015611b5757848901518255600182019150602085019450602081019050611b32565b86831015611b745784890151611b70601f891682611a7d565b8355505b6001600288020188555050505b505050505050565b6000606082019050611b9e6000830186611037565b611bab6020830185611078565b8181036040830152611bbd8184611785565b9050949350505050565b6000611bd282610fd4565b9150611bdd83610fd4565b9250828203905081811115611bf557611bf4611834565b5b92915050565b7f4e487b7100000000000000000000000000000000000000000000000000000000600052603260045260246000fd5b7f4c697374696e6720646f6573206e6f742065786973742e000000000000000000600082015250565b6000611c60601783611774565b9150611c6b82611c2a565b602082019050919050565b60006020820190508181036000830152611c8f81611c53565b9050919050565b7f4e6f7420656e6f756768204554482073656e742e000000000000000000000000600082015250565b6000611ccc601483611774565b9150611cd782611c96565b602082019050919050565b60006020820190508181036000830152611cfb81611cbf565b9050919050565b6000606082019050611d176000830186611037565b611d246020830185611078565b611d316040830184611037565b94935050505056fea2646970667358221220dbbbb9e21c0a76b46cebafb1d0fc7ff9c17f946f185aaef992536b0d018f685764736f6c63430008120033",
  "linkReferences": {},
  "deployedLinkReferences": {}
}