{
  "_format": "hh-sol-artifact-1",
  "contractName": "mStay",
  "sourceName": "contracts/mStay.sol",
  "abi": [
    {
      "anonymous": false,
      "inputs": [
        {
          "indexed": false,
          "internalType": "uint256",
          "name": "id",
          "type": "uint256"
        },
        {
          "indexed": false,
          "internalType": "address",
          "name": "owner",
          "type": "address"
        },
        {
          "indexed": false,
          "internalType": "string",
          "name": "title",
          "type": "string"
        }
      ],
      "name": "ListingCreated",
      "type": "event"
    },
    {
      "anonymous": false,
      "inputs": [
        {
          "indexed": false,
          "internalType": "uint256",
          "name": "id",
          "type": "uint256"
        },
        {
          "indexed": false,
          "internalType": "address",
          "name": "guest",
          "type": "address"
        },
        {
          "indexed": false,
          "internalType": "uint256",
          "name": "listingId",
          "type": "uint256"
        }
      ],
      "name": "ReservationMade",
      "type": "event"
    },
    {
      "inputs": [
        {
          "internalType": "string",
          "name": "_title",
          "type": "string"
        },
        {
          "internalType": "string",
          "name": "_location",
          "type": "string"
        },
        {
          "internalType": "string",
          "name": "_description",
          "type": "string"
        },
        {
          "internalType": "uint256",
          "name": "_pricePerNight",
          "type": "uint256"
        },
        {
          "internalType": "string[]",
          "name": "_images",
          "type": "string[]"
        }
      ],
      "name": "createListing",
      "outputs": [],
      "stateMutability": "nonpayable",
      "type": "function"
    },
    {
      "inputs": [],
      "name": "getAllListings",
      "outputs": [
        {
          "components": [
            {
              "internalType": "uint256",
              "name": "id",
              "type": "uint256"
            },
            {
              "internalType": "address payable",
              "name": "owner",
              "type": "address"
            },
            {
              "internalType": "string",
              "name": "title",
              "type": "string"
            },
            {
              "internalType": "string",
              "name": "location",
              "type": "string"
            },
            {
              "internalType": "string",
              "name": "description",
              "type": "string"
            },
            {
              "internalType": "uint256",
              "name": "pricePerNight",
              "type": "uint256"
            },
            {
              "internalType": "string[]",
              "name": "images",
              "type": "string[]"
            }
          ],
          "internalType": "struct mStay.Listing[]",
          "name": "",
          "type": "tuple[]"
        }
      ],
      "stateMutability": "view",
      "type": "function"
    },
    {
      "inputs": [],
      "name": "getAllReservations",
      "outputs": [
        {
          "components": [
            {
              "internalType": "uint256",
              "name": "id",
              "type": "uint256"
            },
            {
              "internalType": "address",
              "name": "guest",
              "type": "address"
            },
            {
              "internalType": "uint256",
              "name": "listingId",
              "type": "uint256"
            },
            {
              "internalType": "uint256",
              "name": "checkInDate",
              "type": "uint256"
            },
            {
              "internalType": "uint256",
              "name": "checkOutDate",
              "type": "uint256"
            }
          ],
          "internalType": "struct mStay.Reservation[]",
          "name": "",
          "type": "tuple[]"
        }
      ],
      "stateMutability": "view",
      "type": "function"
    },
    {
      "inputs": [],
      "name": "listingCount",
      "outputs": [
        {
          "internalType": "uint256",
          "name": "",
          "type": "uint256"
        }
      ],
      "stateMutability": "view",
      "type": "function"
    },
    {
      "inputs": [
        {
          "internalType": "uint256",
          "name": "",
          "type": "uint256"
        }
      ],
      "name": "listings",
      "outputs": [
        {
          "internalType": "uint256",
          "name": "id",
          "type": "uint256"
        },
        {
          "internalType": "address payable",
          "name": "owner",
          "type": "address"
        },
        {
          "internalType": "string",
          "name": "title",
          "type": "string"
        },
        {
          "internalType": "string",
          "name": "location",
          "type": "string"
        },
        {
          "internalType": "string",
          "name": "description",
          "type": "string"
        },
        {
          "internalType": "uint256",
          "name": "pricePerNight",
          "type": "uint256"
        }
      ],
      "stateMutability": "view",
      "type": "function"
    },
    {
      "inputs": [
        {
          "internalType": "uint256",
          "name": "_listingId",
          "type": "uint256"
        },
        {
          "internalType": "uint256",
          "name": "_checkInDate",
          "type": "uint256"
        },
        {
          "internalType": "uint256",
          "name": "_checkOutDate",
          "type": "uint256"
        }
      ],
      "name": "makeReservation",
      "outputs": [],
      "stateMutability": "payable",
      "type": "function"
    },
    {
      "inputs": [],
      "name": "reservationCount",
      "outputs": [
        {
          "internalType": "uint256",
          "name": "",
          "type": "uint256"
        }
      ],
      "stateMutability": "view",
      "type": "function"
    },
    {
      "inputs": [
        {
          "internalType": "uint256",
          "name": "",
          "type": "uint256"
        }
      ],
      "name": "reservations",
      "outputs": [
        {
          "internalType": "uint256",
          "name": "id",
          "type": "uint256"
        },
        {
          "internalType": "address",
          "name": "guest",
          "type": "address"
        },
        {
          "internalType": "uint256",
          "name": "listingId",
          "type": "uint256"
        },
        {
          "internalType": "uint256",
          "name": "checkInDate",
          "type": "uint256"
        },
        {
          "internalType": "uint256",
          "name": "checkOutDate",
          "type": "uint256"
        }
      ],
      "stateMutability": "view",
      "type": "function"
    }
  ],
  "bytecode": "0x608060405234801561001057600080fd5b5061207f806100206000396000f3fe60806040526004361061007b5760003560e01c8063de06e7a61161004e578063de06e7a614610140578063de74e57b1461015c578063e84f756e1461019e578063fbc62833146101c95761007b565b8063067cf83214610080578063507014c7146100c1578063a9b07c26146100ea578063ae73ccec14610115575b600080fd5b34801561008c57600080fd5b506100a760048036038101906100a291906111d2565b6101f4565b6040516100b895949392919061124f565b60405180910390f35b3480156100cd57600080fd5b506100e860048036038101906100e391906114ce565b61024a565b005b3480156100f657600080fd5b506100ff6103c1565b60405161010c91906115b9565b60405180910390f35b34801561012157600080fd5b5061012a6103c7565b60405161013791906118b8565b60405180910390f35b61015a600480360381019061015591906118da565b61078e565b005b34801561016857600080fd5b50610183600480360381019061017e91906111d2565b610ccf565b60405161019596959493929190611986565b60405180910390f35b3480156101aa57600080fd5b506101b3610ec3565b6040516101c091906115b9565b60405180910390f35b3480156101d557600080fd5b506101de610ec9565b6040516101eb9190611b22565b60405180910390f35b60036020528060005260406000206000915090508060000154908060010160009054906101000a900473ffffffffffffffffffffffffffffffffffffffff16908060020154908060030154908060040154905085565b60008081548092919061025c90611b73565b91905055506040518060e0016040528060005481526020013373ffffffffffffffffffffffffffffffffffffffff1681526020018681526020018581526020018481526020018381526020018281525060026000805481526020019081526020016000206000820151816000015560208201518160010160006101000a81548173ffffffffffffffffffffffffffffffffffffffff021916908373ffffffffffffffffffffffffffffffffffffffff16021790555060408201518160020190816103269190611dc7565b50606082015181600301908161033c9190611dc7565b5060808201518160040190816103529190611dc7565b5060a0820151816005015560c0820151816006019080519060200190610379929190611016565b509050507ffccfab3757a37767d03b5ffd499faaa9faf5a6d33900ee43e310e77bce34940b60005433876040516103b293929190611e99565b60405180910390a15050505050565b60005481565b60606000805467ffffffffffffffff8111156103e6576103e56112bd565b5b60405190808252806020026020018201604052801561041f57816020015b61040c61106f565b8152602001906001900390816104045790505b5090506000600190505b600054811161078657600260008281526020019081526020016000206040518060e0016040529081600082015481526020016001820160009054906101000a900473ffffffffffffffffffffffffffffffffffffffff1673ffffffffffffffffffffffffffffffffffffffff1673ffffffffffffffffffffffffffffffffffffffff1681526020016002820180546104c090611bea565b80601f01602080910402602001604051908101604052809291908181526020018280546104ec90611bea565b80156105395780601f1061050e57610100808354040283529160200191610539565b820191906000526020600020905b81548152906001019060200180831161051c57829003601f168201915b5050505050815260200160038201805461055290611bea565b80601f016020809104026020016040519081016040528092919081815260200182805461057e90611bea565b80156105cb5780601f106105a0576101008083540402835291602001916105cb565b820191906000526020600020905b8154815290600101906020018083116105ae57829003601f168201915b505050505081526020016004820180546105e490611bea565b80601f016020809104026020016040519081016040528092919081815260200182805461061090611bea565b801561065d5780601f106106325761010080835404028352916020019161065d565b820191906000526020600020905b81548152906001019060200180831161064057829003601f168201915b505050505081526020016005820154815260200160068201805480602002602001604051908101604052809291908181526020016000905b828210156107415783829060005260206000200180546106b490611bea565b80601f01602080910402602001604051908101604052809291908181526020018280546106e090611bea565b801561072d5780601f106107025761010080835404028352916020019161072d565b820191906000526020600020905b81548152906001019060200180831161071057829003601f168201915b505050505081526020019060010190610695565b5050505081525050826001836107579190611ed7565b8151811061076857610767611f0b565b5b6020026020010181905250808061077e90611b73565b915050610429565b508091505090565b6000600260008581526020019081526020016000206040518060e0016040529081600082015481526020016001820160009054906101000a900473ffffffffffffffffffffffffffffffffffffffff1673ffffffffffffffffffffffffffffffffffffffff1673ffffffffffffffffffffffffffffffffffffffff16815260200160028201805461081e90611bea565b80601f016020809104026020016040519081016040528092919081815260200182805461084a90611bea565b80156108975780601f1061086c57610100808354040283529160200191610897565b820191906000526020600020905b81548152906001019060200180831161087a57829003601f168201915b505050505081526020016003820180546108b090611bea565b80601f01602080910402602001604051908101604052809291908181526020018280546108dc90611bea565b80156109295780601f106108fe57610100808354040283529160200191610929565b820191906000526020600020905b81548152906001019060200180831161090c57829003601f168201915b5050505050815260200160048201805461094290611bea565b80601f016020809104026020016040519081016040528092919081815260200182805461096e90611bea565b80156109bb5780601f10610990576101008083540402835291602001916109bb565b820191906000526020600020905b81548152906001019060200180831161099e57829003601f168201915b505050505081526020016005820154815260200160068201805480602002602001604051908101604052809291908181526020016000905b82821015610a9f578382906000526020600020018054610a1290611bea565b80601f0160208091040260200160405190810160405280929190818152602001828054610a3e90611bea565b8015610a8b5780601f10610a6057610100808354040283529160200191610a8b565b820191906000526020600020905b815481529060010190602001808311610a6e57829003601f168201915b5050505050815260200190600101906109f3565b50505050815250509050600073ffffffffffffffffffffffffffffffffffffffff16816020015173ffffffffffffffffffffffffffffffffffffffff1603610b1c576040517f08c379a0000000000000000000000000000000000000000000000000000000008152600401610b1390611f86565b60405180910390fd5b8060a00151341015610b63576040517f08c379a0000000000000000000000000000000000000000000000000000000008152600401610b5a90611ff2565b60405180910390fd5b60016000815480929190610b7690611b73565b91905055506040518060a0016040528060015481526020013373ffffffffffffffffffffffffffffffffffffffff168152602001858152602001848152602001838152506003600060015481526020019081526020016000206000820151816000015560208201518160010160006101000a81548173ffffffffffffffffffffffffffffffffffffffff021916908373ffffffffffffffffffffffffffffffffffffffff160217905550604082015181600201556060820151816003015560808201518160040155905050806020015173ffffffffffffffffffffffffffffffffffffffff166108fc349081150290604051600060405180830381858888f19350505050158015610c8b573d6000803e3d6000fd5b507f1454e9ce257a8f02d1dcfcab9cf23320507f1597a918e65c2ab9e457f9acb2cc6001543386604051610cc193929190612012565b60405180910390a150505050565b60026020528060005260406000206000915090508060000154908060010160009054906101000a900473ffffffffffffffffffffffffffffffffffffffff1690806002018054610d1e90611bea565b80601f0160208091040260200160405190810160405280929190818152602001828054610d4a90611bea565b8015610d975780601f10610d6c57610100808354040283529160200191610d97565b820191906000526020600020905b815481529060010190602001808311610d7a57829003601f168201915b505050505090806003018054610dac90611bea565b80601f0160208091040260200160405190810160405280929190818152602001828054610dd890611bea565b8015610e255780601f10610dfa57610100808354040283529160200191610e25565b820191906000526020600020905b815481529060010190602001808311610e0857829003601f168201915b505050505090806004018054610e3a90611bea565b80601f0160208091040260200160405190810160405280929190818152602001828054610e6690611bea565b8015610eb35780601f10610e8857610100808354040283529160200191610eb3565b820191906000526020600020905b815481529060010190602001808311610e9657829003601f168201915b5050505050908060050154905086565b60015481565b6060600060015467ffffffffffffffff811115610ee957610ee86112bd565b5b604051908082528060200260200182016040528015610f2257816020015b610f0f6110c2565b815260200190600190039081610f075790505b5090506000600190505b600154811161100e57600360008281526020019081526020016000206040518060a0016040529081600082015481526020016001820160009054906101000a900473ffffffffffffffffffffffffffffffffffffffff1673ffffffffffffffffffffffffffffffffffffffff1673ffffffffffffffffffffffffffffffffffffffff168152602001600282015481526020016003820154815260200160048201548152505082600183610fdf9190611ed7565b81518110610ff057610fef611f0b565b5b6020026020010181905250808061100690611b73565b915050610f2c565b508091505090565b82805482825590600052602060002090810192821561105e579160200282015b8281111561105d57825182908161104d9190611dc7565b5091602001919060010190611036565b5b50905061106b9190611107565b5090565b6040518060e0016040528060008152602001600073ffffffffffffffffffffffffffffffffffffffff16815260200160608152602001606081526020016060815260200160008152602001606081525090565b6040518060a0016040528060008152602001600073ffffffffffffffffffffffffffffffffffffffff1681526020016000815260200160008152602001600081525090565b5b80821115611127576000818161111e919061112b565b50600101611108565b5090565b50805461113790611bea565b6000825580601f106111495750611168565b601f016020900490600052602060002090810190611167919061116b565b5b50565b5b8082111561118457600081600090555060010161116c565b5090565b6000604051905090565b600080fd5b600080fd5b6000819050919050565b6111af8161119c565b81146111ba57600080fd5b50565b6000813590506111cc816111a6565b92915050565b6000602082840312156111e8576111e7611192565b5b60006111f6848285016111bd565b91505092915050565b6112088161119c565b82525050565b600073ffffffffffffffffffffffffffffffffffffffff82169050919050565b60006112398261120e565b9050919050565b6112498161122e565b82525050565b600060a08201905061126460008301886111ff565b6112716020830187611240565b61127e60408301866111ff565b61128b60608301856111ff565b61129860808301846111ff565b9695505050505050565b600080fd5b600080fd5b6000601f19601f8301169050919050565b7f4e487b7100000000000000000000000000000000000000000000000000000000600052604160045260246000fd5b6112f5826112ac565b810181811067ffffffffffffffff82111715611314576113136112bd565b5b80604052505050565b6000611327611188565b905061133382826112ec565b919050565b600067ffffffffffffffff821115611353576113526112bd565b5b61135c826112ac565b9050602081019050919050565b82818337600083830152505050565b600061138b61138684611338565b61131d565b9050828152602081018484840111156113a7576113a66112a7565b5b6113b2848285611369565b509392505050565b600082601f8301126113cf576113ce6112a2565b5b81356113df848260208601611378565b91505092915050565b600067ffffffffffffffff821115611403576114026112bd565b5b602082029050602081019050919050565b600080fd5b600061142c611427846113e8565b61131d565b9050808382526020820190506020840283018581111561144f5761144e611414565b5b835b8181101561149657803567ffffffffffffffff811115611474576114736112a2565b5b80860161148189826113ba565b85526020850194505050602081019050611451565b5050509392505050565b600082601f8301126114b5576114b46112a2565b5b81356114c5848260208601611419565b91505092915050565b600080600080600060a086880312156114ea576114e9611192565b5b600086013567ffffffffffffffff81111561150857611507611197565b5b611514888289016113ba565b955050602086013567ffffffffffffffff81111561153557611534611197565b5b611541888289016113ba565b945050604086013567ffffffffffffffff81111561156257611561611197565b5b61156e888289016113ba565b935050606061157f888289016111bd565b925050608086013567ffffffffffffffff8111156115a05761159f611197565b5b6115ac888289016114a0565b9150509295509295909350565b60006020820190506115ce60008301846111ff565b92915050565b600081519050919050565b600082825260208201905092915050565b6000819050602082019050919050565b6116098161119c565b82525050565b600061161a8261120e565b9050919050565b61162a8161160f565b82525050565b600081519050919050565b600082825260208201905092915050565b60005b8381101561166a57808201518184015260208101905061164f565b60008484015250505050565b600061168182611630565b61168b818561163b565b935061169b81856020860161164c565b6116a4816112ac565b840191505092915050565b600081519050919050565b600082825260208201905092915050565b6000819050602082019050919050565b60006116e78383611676565b905092915050565b6000602082019050919050565b6000611707826116af565b61171181856116ba565b935083602082028501611723856116cb565b8060005b8581101561175f578484038952815161174085826116db565b945061174b836116ef565b925060208a01995050600181019050611727565b50829750879550505050505092915050565b600060e0830160008301516117896000860182611600565b50602083015161179c6020860182611621565b50604083015184820360408601526117b48282611676565b915050606083015184820360608601526117ce8282611676565b915050608083015184820360808601526117e88282611676565b91505060a08301516117fd60a0860182611600565b5060c083015184820360c086015261181582826116fc565b9150508091505092915050565b600061182e8383611771565b905092915050565b6000602082019050919050565b600061184e826115d4565b61185881856115df565b93508360208202850161186a856115f0565b8060005b858110156118a657848403895281516118878582611822565b945061189283611836565b925060208a0199505060018101905061186e565b50829750879550505050505092915050565b600060208201905081810360008301526118d28184611843565b905092915050565b6000806000606084860312156118f3576118f2611192565b5b6000611901868287016111bd565b9350506020611912868287016111bd565b9250506040611923868287016111bd565b9150509250925092565b6119368161160f565b82525050565b600082825260208201905092915050565b600061195882611630565b611962818561193c565b935061197281856020860161164c565b61197b816112ac565b840191505092915050565b600060c08201905061199b60008301896111ff565b6119a8602083018861192d565b81810360408301526119ba818761194d565b905081810360608301526119ce818661194d565b905081810360808301526119e2818561194d565b90506119f160a08301846111ff565b979650505050505050565b600081519050919050565b600082825260208201905092915050565b6000819050602082019050919050565b611a318161122e565b82525050565b60a082016000820151611a4d6000850182611600565b506020820151611a606020850182611a28565b506040820151611a736040850182611600565b506060820151611a866060850182611600565b506080820151611a996080850182611600565b50505050565b6000611aab8383611a37565b60a08301905092915050565b6000602082019050919050565b6000611acf826119fc565b611ad98185611a07565b9350611ae483611a18565b8060005b83811015611b15578151611afc8882611a9f565b9750611b0783611ab7565b925050600181019050611ae8565b5085935050505092915050565b60006020820190508181036000830152611b3c8184611ac4565b905092915050565b7f4e487b7100000000000000000000000000000000000000000000000000000000600052601160045260246000fd5b6000611b7e8261119c565b91507fffffffffffffffffffffffffffffffffffffffffffffffffffffffffffffffff8203611bb057611baf611b44565b5b600182019050919050565b7f4e487b7100000000000000000000000000000000000000000000000000000000600052602260045260246000fd5b60006002820490506001821680611c0257607f821691505b602082108103611c1557611c14611bbb565b5b50919050565b60008190508160005260206000209050919050565b60006020601f8301049050919050565b600082821b905092915050565b600060088302611c7d7fffffffffffffffffffffffffffffffffffffffffffffffffffffffffffffffff82611c40565b611c878683611c40565b95508019841693508086168417925050509392505050565b6000819050919050565b6000611cc4611cbf611cba8461119c565b611c9f565b61119c565b9050919050565b6000819050919050565b611cde83611ca9565b611cf2611cea82611ccb565b848454611c4d565b825550505050565b600090565b611d07611cfa565b611d12818484611cd5565b505050565b5b81811015611d3657611d2b600082611cff565b600181019050611d18565b5050565b601f821115611d7b57611d4c81611c1b565b611d5584611c30565b81016020851015611d64578190505b611d78611d7085611c30565b830182611d17565b50505b505050565b600082821c905092915050565b6000611d9e60001984600802611d80565b1980831691505092915050565b6000611db78383611d8d565b9150826002028217905092915050565b611dd082611630565b67ffffffffffffffff811115611de957611de86112bd565b5b611df38254611bea565b611dfe828285611d3a565b600060209050601f831160018114611e315760008415611e1f578287015190505b611e298582611dab565b865550611e91565b601f198416611e3f86611c1b565b60005b82811015611e6757848901518255600182019150602085019450602081019050611e42565b86831015611e845784890151611e80601f891682611d8d565b8355505b6001600288020188555050505b505050505050565b6000606082019050611eae60008301866111ff565b611ebb6020830185611240565b8181036040830152611ecd818461194d565b9050949350505050565b6000611ee28261119c565b9150611eed8361119c565b9250828203905081811115611f0557611f04611b44565b5b92915050565b7f4e487b7100000000000000000000000000000000000000000000000000000000600052603260045260246000fd5b7f4c697374696e6720646f6573206e6f742065786973742e000000000000000000600082015250565b6000611f7060178361193c565b9150611f7b82611f3a565b602082019050919050565b60006020820190508181036000830152611f9f81611f63565b9050919050565b7f4e6f7420656e6f756768204554482073656e742e000000000000000000000000600082015250565b6000611fdc60148361193c565b9150611fe782611fa6565b602082019050919050565b6000602082019050818103600083015261200b81611fcf565b9050919050565b600060608201905061202760008301866111ff565b6120346020830185611240565b61204160408301846111ff565b94935050505056fea2646970667358221220cf74ea7a945985ebb0018145eb6b18c20b92b1e01cb58863b5a3f0c3c21181cb64736f6c63430008120033",
  "linkReferences": {},
  "deployedLinkReferences": {}
}